{
  "address": "0x6529F395DcaB1930B3a0561f61526a01Eebb189b",
  "abi": [
    {
      "inputs": [
        {
          "internalType": "uint64",
          "name": "subscriptionId",
          "type": "uint64"
        },
        {
          "internalType": "contract MothoraGame",
          "name": "mothoraGame",
          "type": "address"
        }
      ],
      "stateMutability": "nonpayable",
      "type": "constructor"
    },
    {
      "inputs": [
        {
          "internalType": "address",
          "name": "have",
          "type": "address"
        },
        {
          "internalType": "address",
          "name": "want",
          "type": "address"
        }
      ],
      "name": "OnlyCoordinatorCanFulfill",
      "type": "error"
    },
    {
      "anonymous": false,
      "inputs": [
        {
          "indexed": true,
          "internalType": "uint256",
          "name": "arenaId",
          "type": "uint256"
        },
        {
          "indexed": true,
          "internalType": "address",
          "name": "creator",
          "type": "address"
        }
      ],
      "name": "ArenaSessionCreated",
      "type": "event"
    },
    {
      "anonymous": false,
      "inputs": [
        {
          "indexed": true,
          "internalType": "uint256",
          "name": "arenaId",
          "type": "uint256"
        }
      ],
      "name": "ArenaSessionPostgame",
      "type": "event"
    },
    {
      "anonymous": false,
      "inputs": [
        {
          "indexed": true,
          "internalType": "uint256",
          "name": "arenaId",
          "type": "uint256"
        }
      ],
      "name": "ArenaSessionRewarded",
      "type": "event"
    },
    {
      "anonymous": false,
      "inputs": [
        {
          "indexed": true,
          "internalType": "address",
          "name": "mothoraGameContractAddress",
          "type": "address"
        }
      ],
      "name": "MothoraGameAddressUpdated",
      "type": "event"
    },
    {
      "anonymous": false,
      "inputs": [
        {
          "indexed": true,
          "internalType": "address",
          "name": "previousOwner",
          "type": "address"
        },
        {
          "indexed": true,
          "internalType": "address",
          "name": "newOwner",
          "type": "address"
        }
      ],
      "name": "OwnershipTransferred",
      "type": "event"
    },
    {
      "inputs": [],
      "name": "arenaSessionsCounter",
      "outputs": [
        {
          "internalType": "uint256",
          "name": "_value",
          "type": "uint256"
        }
      ],
      "stateMutability": "view",
      "type": "function"
    },
    {
      "inputs": [
        {
          "internalType": "uint256",
          "name": "arenaId",
          "type": "uint256"
        }
      ],
      "name": "getArenaSessionData",
      "outputs": [
        {
          "internalType": "uint256",
          "name": "status",
          "type": "uint256"
        },
        {
          "internalType": "address[]",
          "name": "players",
          "type": "address[]"
        }
      ],
      "stateMutability": "view",
      "type": "function"
    },
    {
      "inputs": [],
      "name": "getMothoraGame",
      "outputs": [
        {
          "internalType": "address",
          "name": "",
          "type": "address"
        }
      ],
      "stateMutability": "view",
      "type": "function"
    },
    {
      "inputs": [
        {
          "internalType": "address",
          "name": "player",
          "type": "address"
        }
      ],
      "name": "getPlayerInSession",
      "outputs": [
        {
          "internalType": "uint256",
          "name": "arenaId",
          "type": "uint256"
        }
      ],
      "stateMutability": "view",
      "type": "function"
    },
    {
      "inputs": [],
      "name": "owner",
      "outputs": [
        {
          "internalType": "address",
          "name": "",
          "type": "address"
        }
      ],
      "stateMutability": "view",
      "type": "function"
    },
    {
      "inputs": [
        {
          "internalType": "uint256",
          "name": "requestId",
          "type": "uint256"
        },
        {
          "internalType": "uint256[]",
          "name": "randomWords",
          "type": "uint256[]"
        }
      ],
      "name": "rawFulfillRandomWords",
      "outputs": [],
      "stateMutability": "nonpayable",
      "type": "function"
    },
    {
      "inputs": [],
      "name": "renounceOwnership",
      "outputs": [],
      "stateMutability": "nonpayable",
      "type": "function"
    },
    {
      "inputs": [
        {
          "internalType": "address",
          "name": "mothoraGameContractAddress",
          "type": "address"
        }
      ],
      "name": "setMothoraGame",
      "outputs": [],
      "stateMutability": "nonpayable",
      "type": "function"
    },
    {
      "inputs": [
        {
          "internalType": "address[]",
          "name": "players",
          "type": "address[]"
        }
      ],
      "name": "startArenaSession",
      "outputs": [],
      "stateMutability": "nonpayable",
      "type": "function"
    },
    {
      "inputs": [
        {
          "internalType": "uint256",
          "name": "arenaId",
          "type": "uint256"
        }
      ],
      "name": "terminateArenaSession",
      "outputs": [],
      "stateMutability": "nonpayable",
      "type": "function"
    },
    {
      "inputs": [
        {
          "internalType": "address",
          "name": "newOwner",
          "type": "address"
        }
      ],
      "name": "transferOwnership",
      "outputs": [],
      "stateMutability": "nonpayable",
      "type": "function"
    }
  ],
  "transactionHash": "0xc350c44204905cc743e4d3dfb4473549d4edb00ef09edb844f4c9e8840a5186f",
  "args": [
    1498,
    "0xD0a4316a9e1E197b41Cf6530A1bbAd30A6cCc6B7"
  ],
  "numDeployments": 2,
  "solcInputHash": "270831f0cdf0f9424e5d046dd1d71b90",
  "bytecode": "0x60a0604052600780546001600160a01b0319908116737a1bac17ccc5b313516c5e16fb24f7659aa5ebed179091556008805490911673326c977e6efc84e512bb9c30f76e30c160ed06fb1790557f4b09e658ed251bcafeebbc69400383d49f344ace09b9576fe248bb02c003fe9f600955600a805464030007a12065ffffffffffff1990911617905534801561009457600080fd5b506040516116b43803806116b48339810160408190526100b391610183565b6007546001600160a01b03166080526100cb33610133565b600754600580546001600160a01b03199081166001600160a01b0393841617909155600854600680546001600160401b03909616600160a01b026001600160e01b031990961691841691909117949094179093556004805492909116919092161790556101d5565b600080546001600160a01b038381166001600160a01b0319831681178455604051919092169283917f8be0079c531659141344cd1fd0a4f28419497f9722a3daafe3b4186f6b6457e09190a35050565b6000806040838503121561019657600080fd5b82516001600160401b03811681146101ad57600080fd5b60208401519092506001600160a01b03811681146101ca57600080fd5b809150509250929050565b6080516114bd6101f760003960008181610211015261025301526114bd6000f3fe608060405234801561001057600080fd5b50600436106100a95760003560e01c8063797edff311610071578063797edff31461011c5780638da5cb5b14610145578063a95752191461016a578063d0ca5f6c1461017d578063e6407ffe1461018e578063f2fde38b146101a157600080fd5b806302ee2700146100ae5780631fe543e3146100c3578063255db6fe146100d65780636c43fc26146100f3578063715018a614610114575b600080fd5b6100c16100bc366004611153565b6101b4565b005b6100c16100d13660046111e2565b610206565b6001546100e09081565b6040519081526020015b60405180910390f35b610106610101366004611284565b610293565b6040516100ea92919061129d565b6100c1610367565b6100e061012a366004611153565b6001600160a01b031660009081526003602052604090205490565b6000546001600160a01b03165b6040516001600160a01b0390911681526020016100ea565b6100c16101783660046112f4565b61037b565b6004546001600160a01b0316610152565b6100c161019c366004611284565b6108f0565b6100c16101af366004611153565b610bef565b6101bc610c68565b600480546001600160a01b0319166001600160a01b0383169081179091556040517fb470247bc93cda00b99087355b926ca47d43fc2d926a1fc9dda5c26af915d06d90600090a250565b336001600160a01b037f000000000000000000000000000000000000000000000000000000000000000016146102855760405163073e64fd60e21b81523360048201526001600160a01b037f00000000000000000000000000000000000000000000000000000000000000001660248201526044015b60405180910390fd5b61028f8282610cc2565b5050565b6000818152600260205260408082208151808301909252805460609284929091829060ff1660038111156102c9576102c961138e565b60038111156102da576102da61138e565b81526020016001820180548060200260200160405190810160405280929190818152602001828054801561033757602002820191906000526020600020905b81546001600160a01b03168152600190910190602001808311610319575b5050505050815250509050806000015160038111156103585761035861138e565b92508060200151915050915091565b61036f610c68565b6103796000611083565b565b60048054604051631895c2d560e31b815233928101929092526000916001600160a01b039091169063c4ae16a890602401602060405180830381865afa1580156103c9573d6000803e3d6000fd5b505050506040513d601f19601f820116820180604052508101906103ed91906113a4565b60048054604051630f45db9160e01b815233928101929092529192506000916001600160a01b031690630f45db9190602401602060405180830381865afa15801561043c573d6000803e3d6000fd5b505050506040513d601f19601f8201168201806040525081019061046091906113bd565b9050811580159061046f575080155b61048b5760405162461bcd60e51b815260040161027c906113df565b6104936110d3565b8351604082018190526018116104e25760405162461bcd60e51b8152602060048201526014602482015273494e56414c49445f53455353494f4e5f53495a4560601b604482015260640161027c565b6104f0600180546001019055565b600154606082015260005b81604001518110156107c6578481815181106105195761051961140b565b6020908102919091018101516001600160a01b0390811691840182905260048054604051631895c2d560e31b81529182019390935291169063c4ae16a890602401602060405180830381865afa158015610577573d6000803e3d6000fd5b505050506040513d601f19601f8201168201806040525081019061059b91906113a4565b6080830152600480546020840151604051630f45db9160e01b81526001600160a01b03918216938101939093521690630f45db9190602401602060405180830381865afa1580156105f0573d6000803e3d6000fd5b505050506040513d601f19601f8201168201806040525081019061061491906113bd565b15158252600480546020840151604051639151097960e01b81526001600160a01b03918216938101939093521690639151097990602401602060405180830381865afa158015610668573d6000803e3d6000fd5b505050506040513d601f19601f8201168201806040525081019061068c91906113a4565b60a08301526080820151158015906106a357508151155b6106bf5760405162461bcd60e51b815260040161027c906113df565b6020808301516001600160a01b03166000908152600390915260409020541561072a5760405162461bcd60e51b815260206004820152601e60248201527f504c415945525f494e5f53455353494f4e5f4f525f4455504c49434154450000604482015260640161027c565b60018260c001518360a00151600481106107465761074661140b565b602002018181516107579190611421565b90525060608201805160009081526002602090815260408083208287018051600192830180549384018155865284862090920180546001600160a01b039384166001600160a01b03199091161790559451945116835260039091529020556107bf8160010190565b90506104fb565b50606081015133600090815260036020526040902054146108225760405162461bcd60e51b815260206004820152601660248201527521a922a0aa27a92fa727aa2fa4a72fa9a2a9a9a4a7a760511b604482015260640161027c565b60015b6003811161089f5760008260c0015182600481106108455761084561140b565b6020020151116108975760405162461bcd60e51b815260206004820152601a60248201527f4e4f545f454e4f5547485f46414354494f4e5f4d454d42455253000000000000604482015260640161027c565b600101610825565b50606081018051600090815260026020526040808220805460ff19166001179055915191513392917f5e46cf24ae58c4309e466c6023b279070ace2b57fda12278e6b4cc9322812d4291a350505050565b60048054604051631895c2d560e31b815233928101929092526000916001600160a01b039091169063c4ae16a890602401602060405180830381865afa15801561093e573d6000803e3d6000fd5b505050506040513d601f19601f8201168201806040525081019061096291906113a4565b60048054604051630f45db9160e01b815233928101929092529192506000916001600160a01b031690630f45db9190602401602060405180830381865afa1580156109b1573d6000803e3d6000fd5b505050506040513d601f19601f820116820180604052508101906109d591906113bd565b905081158015906109e4575080155b610a005760405162461bcd60e51b815260040161027c906113df565b336000908152600360205260409020548314610a5e5760405162461bcd60e51b815260206004820152601960248201527f5445524d494e41544f525f4e4f545f494e5f53455353494f4e00000000000000604482015260640161027c565b600160008481526002602052604090205460ff166003811115610a8357610a8361138e565b14610ac55760405162461bcd60e51b815260206004820152601260248201527153455353494f4e5f4e4f545f494e47414d4560701b604482015260640161027c565b6000838152600260208190526040808320805460ff19169092178255600190910154600554600954600654600a5494516305d3b1d360e41b8152600481019290925267ffffffffffffffff600160a01b90910416602482015261ffff640100000000850416604482015263ffffffff938416606482015292821660848401529092916001600160a01b0390911690635d3b1d309060a4016020604051808303816000875af1158015610b7b573d6000803e3d6000fd5b505050506040513d601f19601f82011682018060405250810190610b9f91906113a4565b6000818152600b602052604080822080546001600160a01b031916331790555191925086917fe7d4f36ea90437a58d33ed55900254ebec12b5b26a19a52840031656ea43d2209190a25050505050565b610bf7610c68565b6001600160a01b038116610c5c5760405162461bcd60e51b815260206004820152602660248201527f4f776e61626c653a206e6577206f776e657220697320746865207a65726f206160448201526564647265737360d01b606482015260840161027c565b610c6581611083565b50565b6000546001600160a01b031633146103795760405162461bcd60e51b815260206004820181905260248201527f4f776e61626c653a2063616c6c6572206973206e6f7420746865206f776e6572604482015260640161027c565b6000828152600b60209081526040808320546001600160a01b031680845260039092528220549091819003610d2e5760405162461bcd60e51b815260206004820152601260248201527114d154d4d253d397d35554d517d1561254d560721b604482015260640161027c565b600260008281526002602052604090205460ff166003811115610d5357610d5361138e565b14610da05760405162461bcd60e51b815260206004820152601860248201527f53455353494f4e5f414c52454144595f52455741524445440000000000000000604482015260640161027c565b6000818152600260209081526040808320805460ff1916600317815560010154600480548351631dcf023d60e11b815293519295948594859485946001600160a01b0390941693633b9e047a9383820193909291908290030181865afa158015610e0e573d6000803e3d6000fd5b505050506040513d601f19601f82011682018060405250810190610e329190611448565b905060005b8581101561104c57600087815260026020526040812060010180549196509082908110610e6657610e6661140b565b9060005260206000200160009054906101000a90046001600160a01b031692506103e8898281518110610e9b57610e9b61140b565b6020026020010151610ead9190611465565b610eb8906001611421565b9350876001600160a01b0316836001600160a01b031603610ed857600194505b6103208410610f5757610eec600486611421565b6040516375a877c160e11b81526001600160a01b038581166004830152602482018390529196509083169063eb50ef8290604401600060405180830381600087803b158015610f3a57600080fd5b505af1158015610f4e573d6000803e3d6000fd5b5050505061102b565b61032084108015610f6a57506102588410155b15610f7a57610eec600386611421565b61025884108015610f8d57506101908410155b15610f9d57610eec600286611421565b61019084108015610faf575060c88410155b15610fbf57610eec600186611421565b60c884101561102b576040516375a877c160e11b81526001600160a01b0384811660048301526024820187905283169063eb50ef8290604401600060405180830381600087803b15801561101257600080fd5b505af1158015611026573d6000803e3d6000fd5b505050505b6001600160a01b038316600090815260036020526040812055600101610e37565b5060405186907fd5f32e16607a54657fd5dbd91ad8c33ef665f94f597cdf1ffe286e3f9e8ad0d290600090a2505050505050505050565b600080546001600160a01b038381166001600160a01b0319831681178455604051919092169283917f8be0079c531659141344cd1fd0a4f28419497f9722a3daafe3b4186f6b6457e09190a35050565b6040518060e0016040528060001515815260200160006001600160a01b031681526020016000815260200160008152602001600081526020016000815260200161111b611120565b905290565b60405180608001604052806004906020820280368337509192915050565b6001600160a01b0381168114610c6557600080fd5b60006020828403121561116557600080fd5b81356111708161113e565b9392505050565b634e487b7160e01b600052604160045260246000fd5b604051601f8201601f1916810167ffffffffffffffff811182821017156111b6576111b6611177565b604052919050565b600067ffffffffffffffff8211156111d8576111d8611177565b5060051b60200190565b600080604083850312156111f557600080fd5b8235915060208084013567ffffffffffffffff81111561121457600080fd5b8401601f8101861361122557600080fd5b8035611238611233826111be565b61118d565b81815260059190911b8201830190838101908883111561125757600080fd5b928401925b828410156112755783358252928401929084019061125c565b80955050505050509250929050565b60006020828403121561129657600080fd5b5035919050565b6000604082018483526020604081850152818551808452606086019150828701935060005b818110156112e75784516001600160a01b0316835293830193918301916001016112c2565b5090979650505050505050565b6000602080838503121561130757600080fd5b823567ffffffffffffffff81111561131e57600080fd5b8301601f8101851361132f57600080fd5b803561133d611233826111be565b81815260059190911b8201830190838101908783111561135c57600080fd5b928401925b828410156113835783356113748161113e565b82529284019290840190611361565b979650505050505050565b634e487b7160e01b600052602160045260246000fd5b6000602082840312156113b657600080fd5b5051919050565b6000602082840312156113cf57600080fd5b8151801515811461117057600080fd5b6020808252601290820152714143434f554e545f4e4f545f41435449564560701b604082015260600190565b634e487b7160e01b600052603260045260246000fd5b8082018082111561144257634e487b7160e01b600052601160045260246000fd5b92915050565b60006020828403121561145a57600080fd5b81516111708161113e565b60008261148257634e487b7160e01b600052601260045260246000fd5b50069056fea26469706673582212200294d56ab1a3ebb168d3ea117df5b7f9313cfa2824566a4c0fa5a437dac781ec64736f6c63430008100033",
  "devdoc": {
    "kind": "dev",
    "methods": {
      "getArenaSessionData(uint256)": {
        "details": "Returns the address of the Mothora Game Hub Contract*"
      },
      "getMothoraGame()": {
        "details": "Returns the address of the Mothora Game Hub Contract",
        "returns": {
          "_0": "The Mothora Game address*"
        }
      },
      "getPlayerInSession(address)": {
        "details": "Returns the id of the arena the player is in, 0 if not playing*"
      },
      "owner()": {
        "details": "Returns the address of the current owner."
      },
      "renounceOwnership()": {
        "details": "Leaves the contract without owner. It will not be possible to call `onlyOwner` functions anymore. Can only be called by the current owner. NOTE: Renouncing ownership will leave the contract without an owner, thereby removing any functionality that is only available to the owner."
      },
      "setMothoraGame(address)": {
        "details": "Updates the address of the Mothora Game",
        "params": {
          "mothoraGameContractAddress": "The new Mothora Game address*"
        }
      },
      "startArenaSession(address[])": {
        "details": "Starts an arena session",
        "params": {
          "players": "The addresses of players that will participate in the arena*"
        }
      },
      "terminateArenaSession(uint256)": {
        "details": "Finishes sessions that can be \"terminated\"This function could fetch off-chain information such as winning players through a chainlink adapterFor the current purpose will only determine rewards randomly and give a guaranteed extra reward to the callee of this function",
        "params": {
          "arenaId": "The id of the arena*"
        }
      },
      "transferOwnership(address)": {
        "details": "Transfers ownership of the contract to a new account (`newOwner`). Can only be called by the current owner."
      }
    },
    "version": 1
  },
  "userdoc": {
    "kind": "user",
    "methods": {},
    "version": 1
  },
  "storageLayout": {
    "storage": [
      {
        "astId": 2156,
        "contract": "contracts/modules/Arena.sol:Arena",
        "label": "_owner",
        "offset": 0,
        "slot": "0",
        "type": "t_address"
      },
      {
        "astId": 6134,
        "contract": "contracts/modules/Arena.sol:Arena",
        "label": "arenaSessionsCounter",
        "offset": 0,
        "slot": "1",
        "type": "t_struct(Counter)5116_storage"
      },
      {
        "astId": 6169,
        "contract": "contracts/modules/Arena.sol:Arena",
        "label": "arenaSessionData",
        "offset": 0,
        "slot": "2",
        "type": "t_mapping(t_uint256,t_struct(ArenaData)6164_storage)"
      },
      {
        "astId": 6173,
        "contract": "contracts/modules/Arena.sol:Arena",
        "label": "playerInSession",
        "offset": 0,
        "slot": "3",
        "type": "t_mapping(t_address,t_uint256)"
      },
      {
        "astId": 6176,
        "contract": "contracts/modules/Arena.sol:Arena",
        "label": "mothoraGameContract",
        "offset": 0,
        "slot": "4",
        "type": "t_contract(MothoraGame)6109"
      },
      {
        "astId": 6182,
        "contract": "contracts/modules/Arena.sol:Arena",
        "label": "COORDINATOR",
        "offset": 0,
        "slot": "5",
        "type": "t_contract(VRFCoordinatorV2Interface)248"
      },
      {
        "astId": 6185,
        "contract": "contracts/modules/Arena.sol:Arena",
        "label": "LINKTOKEN",
        "offset": 0,
        "slot": "6",
        "type": "t_contract(LinkTokenInterface)152"
      },
      {
        "astId": 6187,
        "contract": "contracts/modules/Arena.sol:Arena",
        "label": "s_subscriptionId",
        "offset": 20,
        "slot": "6",
        "type": "t_uint64"
      },
      {
        "astId": 6190,
        "contract": "contracts/modules/Arena.sol:Arena",
        "label": "vrfCoordinator",
        "offset": 0,
        "slot": "7",
        "type": "t_address"
      },
      {
        "astId": 6193,
        "contract": "contracts/modules/Arena.sol:Arena",
        "label": "link",
        "offset": 0,
        "slot": "8",
        "type": "t_address"
      },
      {
        "astId": 6196,
        "contract": "contracts/modules/Arena.sol:Arena",
        "label": "keyHash",
        "offset": 0,
        "slot": "9",
        "type": "t_bytes32"
      },
      {
        "astId": 6199,
        "contract": "contracts/modules/Arena.sol:Arena",
        "label": "callbackGasLimit",
        "offset": 0,
        "slot": "10",
        "type": "t_uint32"
      },
      {
        "astId": 6202,
        "contract": "contracts/modules/Arena.sol:Arena",
        "label": "requestConfirmations",
        "offset": 4,
        "slot": "10",
        "type": "t_uint16"
      },
      {
        "astId": 6206,
        "contract": "contracts/modules/Arena.sol:Arena",
        "label": "randomIdToTerminator",
        "offset": 0,
        "slot": "11",
        "type": "t_mapping(t_uint256,t_address)"
      }
    ],
    "types": {
      "t_address": {
        "encoding": "inplace",
        "label": "address",
        "numberOfBytes": "20"
      },
      "t_array(t_address)dyn_storage": {
        "base": "t_address",
        "encoding": "dynamic_array",
        "label": "address[]",
        "numberOfBytes": "32"
      },
      "t_bytes32": {
        "encoding": "inplace",
        "label": "bytes32",
        "numberOfBytes": "32"
      },
      "t_contract(LinkTokenInterface)152": {
        "encoding": "inplace",
        "label": "contract LinkTokenInterface",
        "numberOfBytes": "20"
      },
      "t_contract(MothoraGame)6109": {
        "encoding": "inplace",
        "label": "contract MothoraGame",
        "numberOfBytes": "20"
      },
      "t_contract(VRFCoordinatorV2Interface)248": {
        "encoding": "inplace",
        "label": "contract VRFCoordinatorV2Interface",
        "numberOfBytes": "20"
      },
      "t_enum(Status)6157": {
        "encoding": "inplace",
        "label": "enum Arena.Status",
        "numberOfBytes": "1"
      },
      "t_mapping(t_address,t_uint256)": {
        "encoding": "mapping",
        "key": "t_address",
        "label": "mapping(address => uint256)",
        "numberOfBytes": "32",
        "value": "t_uint256"
      },
      "t_mapping(t_uint256,t_address)": {
        "encoding": "mapping",
        "key": "t_uint256",
        "label": "mapping(uint256 => address)",
        "numberOfBytes": "32",
        "value": "t_address"
      },
      "t_mapping(t_uint256,t_struct(ArenaData)6164_storage)": {
        "encoding": "mapping",
        "key": "t_uint256",
        "label": "mapping(uint256 => struct Arena.ArenaData)",
        "numberOfBytes": "32",
        "value": "t_struct(ArenaData)6164_storage"
      },
      "t_struct(ArenaData)6164_storage": {
        "encoding": "inplace",
        "label": "struct Arena.ArenaData",
        "members": [
          {
            "astId": 6160,
            "contract": "contracts/modules/Arena.sol:Arena",
            "label": "status",
            "offset": 0,
            "slot": "0",
            "type": "t_enum(Status)6157"
          },
          {
            "astId": 6163,
            "contract": "contracts/modules/Arena.sol:Arena",
            "label": "players",
            "offset": 0,
            "slot": "1",
            "type": "t_array(t_address)dyn_storage"
          }
        ],
        "numberOfBytes": "64"
      },
      "t_struct(Counter)5116_storage": {
        "encoding": "inplace",
        "label": "struct Counters.Counter",
        "members": [
          {
            "astId": 5115,
            "contract": "contracts/modules/Arena.sol:Arena",
            "label": "_value",
            "offset": 0,
            "slot": "0",
            "type": "t_uint256"
          }
        ],
        "numberOfBytes": "32"
      },
      "t_uint16": {
        "encoding": "inplace",
        "label": "uint16",
        "numberOfBytes": "2"
      },
      "t_uint256": {
        "encoding": "inplace",
        "label": "uint256",
        "numberOfBytes": "32"
      },
      "t_uint32": {
        "encoding": "inplace",
        "label": "uint32",
        "numberOfBytes": "4"
      },
      "t_uint64": {
        "encoding": "inplace",
        "label": "uint64",
        "numberOfBytes": "8"
      }
    }
  }
}