{
  "address": "0xc48CDc6711aa068A90CcEBf5274E45255c37052A",
  "abi": [
    {
      "inputs": [
        {
          "internalType": "string",
          "name": "_initialFolder",
          "type": "string"
        },
        {
          "internalType": "address",
          "name": "_mothoraGameAddress",
          "type": "address"
        }
      ],
      "stateMutability": "nonpayable",
      "type": "constructor"
    },
    {
      "anonymous": false,
      "inputs": [
        {
          "indexed": true,
          "internalType": "address",
          "name": "account",
          "type": "address"
        },
        {
          "indexed": true,
          "internalType": "address",
          "name": "operator",
          "type": "address"
        },
        {
          "indexed": false,
          "internalType": "bool",
          "name": "approved",
          "type": "bool"
        }
      ],
      "name": "ApprovalForAll",
      "type": "event"
    },
    {
      "anonymous": false,
      "inputs": [
        {
          "indexed": true,
          "internalType": "address",
          "name": "mothoraGameContractAddress",
          "type": "address"
        }
      ],
      "name": "MothoraGameAddressUpdated",
      "type": "event"
    },
    {
      "anonymous": false,
      "inputs": [
        {
          "indexed": true,
          "internalType": "address",
          "name": "previousOwner",
          "type": "address"
        },
        {
          "indexed": true,
          "internalType": "address",
          "name": "newOwner",
          "type": "address"
        }
      ],
      "name": "OwnershipTransferred",
      "type": "event"
    },
    {
      "anonymous": false,
      "inputs": [
        {
          "indexed": true,
          "internalType": "address",
          "name": "operator",
          "type": "address"
        },
        {
          "indexed": true,
          "internalType": "address",
          "name": "from",
          "type": "address"
        },
        {
          "indexed": true,
          "internalType": "address",
          "name": "to",
          "type": "address"
        },
        {
          "indexed": false,
          "internalType": "uint256[]",
          "name": "ids",
          "type": "uint256[]"
        },
        {
          "indexed": false,
          "internalType": "uint256[]",
          "name": "values",
          "type": "uint256[]"
        }
      ],
      "name": "TransferBatch",
      "type": "event"
    },
    {
      "anonymous": false,
      "inputs": [
        {
          "indexed": true,
          "internalType": "address",
          "name": "operator",
          "type": "address"
        },
        {
          "indexed": true,
          "internalType": "address",
          "name": "from",
          "type": "address"
        },
        {
          "indexed": true,
          "internalType": "address",
          "name": "to",
          "type": "address"
        },
        {
          "indexed": false,
          "internalType": "uint256",
          "name": "id",
          "type": "uint256"
        },
        {
          "indexed": false,
          "internalType": "uint256",
          "name": "value",
          "type": "uint256"
        }
      ],
      "name": "TransferSingle",
      "type": "event"
    },
    {
      "anonymous": false,
      "inputs": [
        {
          "indexed": false,
          "internalType": "string",
          "name": "value",
          "type": "string"
        },
        {
          "indexed": true,
          "internalType": "uint256",
          "name": "id",
          "type": "uint256"
        }
      ],
      "name": "URI",
      "type": "event"
    },
    {
      "inputs": [],
      "name": "ARTIFACTS",
      "outputs": [
        {
          "internalType": "uint256",
          "name": "",
          "type": "uint256"
        }
      ],
      "stateMutability": "view",
      "type": "function"
    },
    {
      "inputs": [
        {
          "internalType": "address",
          "name": "account",
          "type": "address"
        },
        {
          "internalType": "uint256",
          "name": "id",
          "type": "uint256"
        }
      ],
      "name": "balanceOf",
      "outputs": [
        {
          "internalType": "uint256",
          "name": "",
          "type": "uint256"
        }
      ],
      "stateMutability": "view",
      "type": "function"
    },
    {
      "inputs": [
        {
          "internalType": "address[]",
          "name": "accounts",
          "type": "address[]"
        },
        {
          "internalType": "uint256[]",
          "name": "ids",
          "type": "uint256[]"
        }
      ],
      "name": "balanceOfBatch",
      "outputs": [
        {
          "internalType": "uint256[]",
          "name": "",
          "type": "uint256[]"
        }
      ],
      "stateMutability": "view",
      "type": "function"
    },
    {
      "inputs": [],
      "name": "getMothoraGame",
      "outputs": [
        {
          "internalType": "address",
          "name": "",
          "type": "address"
        }
      ],
      "stateMutability": "view",
      "type": "function"
    },
    {
      "inputs": [
        {
          "internalType": "address",
          "name": "account",
          "type": "address"
        },
        {
          "internalType": "address",
          "name": "operator",
          "type": "address"
        }
      ],
      "name": "isApprovedForAll",
      "outputs": [
        {
          "internalType": "bool",
          "name": "",
          "type": "bool"
        }
      ],
      "stateMutability": "view",
      "type": "function"
    },
    {
      "inputs": [
        {
          "internalType": "address",
          "name": "recipient",
          "type": "address"
        },
        {
          "internalType": "uint256",
          "name": "amount",
          "type": "uint256"
        }
      ],
      "name": "mintArtifacts",
      "outputs": [],
      "stateMutability": "nonpayable",
      "type": "function"
    },
    {
      "inputs": [],
      "name": "owner",
      "outputs": [
        {
          "internalType": "address",
          "name": "",
          "type": "address"
        }
      ],
      "stateMutability": "view",
      "type": "function"
    },
    {
      "inputs": [],
      "name": "renounceOwnership",
      "outputs": [],
      "stateMutability": "nonpayable",
      "type": "function"
    },
    {
      "inputs": [
        {
          "internalType": "address",
          "name": "from",
          "type": "address"
        },
        {
          "internalType": "address",
          "name": "to",
          "type": "address"
        },
        {
          "internalType": "uint256[]",
          "name": "ids",
          "type": "uint256[]"
        },
        {
          "internalType": "uint256[]",
          "name": "amounts",
          "type": "uint256[]"
        },
        {
          "internalType": "bytes",
          "name": "data",
          "type": "bytes"
        }
      ],
      "name": "safeBatchTransferFrom",
      "outputs": [],
      "stateMutability": "nonpayable",
      "type": "function"
    },
    {
      "inputs": [
        {
          "internalType": "address",
          "name": "from",
          "type": "address"
        },
        {
          "internalType": "address",
          "name": "to",
          "type": "address"
        },
        {
          "internalType": "uint256",
          "name": "id",
          "type": "uint256"
        },
        {
          "internalType": "uint256",
          "name": "amount",
          "type": "uint256"
        },
        {
          "internalType": "bytes",
          "name": "data",
          "type": "bytes"
        }
      ],
      "name": "safeTransferFrom",
      "outputs": [],
      "stateMutability": "nonpayable",
      "type": "function"
    },
    {
      "inputs": [
        {
          "internalType": "address",
          "name": "operator",
          "type": "address"
        },
        {
          "internalType": "bool",
          "name": "approved",
          "type": "bool"
        }
      ],
      "name": "setApprovalForAll",
      "outputs": [],
      "stateMutability": "nonpayable",
      "type": "function"
    },
    {
      "inputs": [
        {
          "internalType": "address",
          "name": "mothoraGameContractAddress",
          "type": "address"
        }
      ],
      "name": "setMothoraGame",
      "outputs": [],
      "stateMutability": "nonpayable",
      "type": "function"
    },
    {
      "inputs": [
        {
          "internalType": "uint256",
          "name": "tokenId",
          "type": "uint256"
        },
        {
          "internalType": "string",
          "name": "NFTuri",
          "type": "string"
        }
      ],
      "name": "setTokenUri",
      "outputs": [],
      "stateMutability": "nonpayable",
      "type": "function"
    },
    {
      "inputs": [
        {
          "internalType": "bytes4",
          "name": "interfaceId",
          "type": "bytes4"
        }
      ],
      "name": "supportsInterface",
      "outputs": [
        {
          "internalType": "bool",
          "name": "",
          "type": "bool"
        }
      ],
      "stateMutability": "view",
      "type": "function"
    },
    {
      "inputs": [
        {
          "internalType": "address",
          "name": "newOwner",
          "type": "address"
        }
      ],
      "name": "transferOwnership",
      "outputs": [],
      "stateMutability": "nonpayable",
      "type": "function"
    },
    {
      "inputs": [
        {
          "internalType": "uint256",
          "name": "tokenId",
          "type": "uint256"
        }
      ],
      "name": "uri",
      "outputs": [
        {
          "internalType": "string",
          "name": "",
          "type": "string"
        }
      ],
      "stateMutability": "view",
      "type": "function"
    }
  ],
  "transactionHash": "0x4224bfd43c447c38889aa1652e2da3c9f7d83570c47e4003d6ad705c5d79954d",
  "args": [
    "https://bafybeiex2io5lawckt4bgjjyhmvfy7yk72s4fmhuxj2rgehwzaa6lderkm.ipfs.dweb.link/",
    "0xD0a4316a9e1E197b41Cf6530A1bbAd30A6cCc6B7"
  ],
  "numDeployments": 1,
  "solcInputHash": "c7aa843f5f3e899c249213340a57bc41",
  "bytecode": "0x60806040523480156200001157600080fd5b5060405162001fda38038062001fda833981016040819052620000349162000278565b8160405160200162000047919062000345565b60408051601f198184030181529190526200006281620000c4565b506200006e33620000d6565b6200009d60008360405160200162000087919062000374565b60408051601f1981840301815291905262000128565b600580546001600160a01b0319166001600160a01b03929092169190911790555062000503565b6002620000d2828262000437565b5050565b600380546001600160a01b038381166001600160a01b0319831681179093556040519116919082907f8be0079c531659141344cd1fd0a4f28419497f9722a3daafe3b4186f6b6457e090600090a35050565b62000132620001c1565b600082815260046020526040902080546200014d90620003a9565b159050620001a25760405162461bcd60e51b815260206004820152601460248201527f43414e4e4f545f5345545f5552495f545749434500000000000000000000000060448201526064015b60405180910390fd5b6000828152600460205260409020620001bc828262000437565b505050565b6003546001600160a01b031633146200021d5760405162461bcd60e51b815260206004820181905260248201527f4f776e61626c653a2063616c6c6572206973206e6f7420746865206f776e6572604482015260640162000199565b565b634e487b7160e01b600052604160045260246000fd5b60005b838110156200025257818101518382015260200162000238565b50506000910152565b80516001600160a01b03811681146200027357600080fd5b919050565b600080604083850312156200028c57600080fd5b82516001600160401b0380821115620002a457600080fd5b818501915085601f830112620002b957600080fd5b815181811115620002ce57620002ce6200021f565b604051601f8201601f19908116603f01168101908382118183101715620002f957620002f96200021f565b816040528281528860208487010111156200031357600080fd5b6200032683602083016020880162000235565b80965050505050506200033c602084016200025b565b90509250929050565b600082516200035981846020870162000235565b683db4b23e973539b7b760b91b920191825250600901919050565b600082516200038881846020870162000235565b600360fc1b92019182525064173539b7b760d91b6001820152600601919050565b600181811c90821680620003be57607f821691505b602082108103620003df57634e487b7160e01b600052602260045260246000fd5b50919050565b601f821115620001bc57600081815260208120601f850160051c810160208610156200040e5750805b601f850160051c820191505b818110156200042f578281556001016200041a565b505050505050565b81516001600160401b038111156200045357620004536200021f565b6200046b81620004648454620003a9565b84620003e5565b602080601f831160018114620004a357600084156200048a5750858301515b600019600386901b1c1916600185901b1785556200042f565b600085815260208120601f198616915b82811015620004d457888601518255948401946001909101908401620004b3565b5085821015620004f35787850151600019600388901b60f8161c191681555b5050505050600190811b01905550565b611ac780620005136000396000f3fe608060405234801561001057600080fd5b50600436106100ff5760003560e01c8063715018a611610097578063e985e9c511610066578063e985e9c514610221578063eb50ef821461025d578063f242432a14610270578063f2fde38b1461028357600080fd5b8063715018a6146101d05780638da5cb5b146101d8578063a22cb465146101fd578063d0ca5f6c1461021057600080fd5b80632eb2c2d6116100d35780632eb2c2d61461018257806347312a75146101955780634e1273f41461019d57806357f7789e146101bd57600080fd5b8062fdd58e1461010457806301ffc9a71461012a57806302ee27001461014d5780630e89341c14610162575b600080fd5b6101176101123660046110e8565b610296565b6040519081526020015b60405180910390f35b61013d61013836600461112a565b61032f565b6040519015158152602001610121565b61016061015b36600461114e565b61037f565b005b61017561017036600461116b565b6103d1565b60405161012191906111ca565b610160610190366004611333565b610473565b610117600081565b6101b06101ab3660046113e1565b6104bf565b60405161012191906114e9565b6101606101cb3660046114fc565b6105e9565b61016061066d565b6003546001600160a01b03165b6040516001600160a01b039091168152602001610121565b61016061020b36600461154d565b610681565b6005546001600160a01b03166101e5565b61013d61022f36600461158b565b6001600160a01b03918216600090815260016020908152604080832093909416825291909152205460ff1690565b61016061026b3660046110e8565b610690565b61016061027e3660046115b9565b61080d565b61016061029136600461114e565b610852565b60006001600160a01b0383166103065760405162461bcd60e51b815260206004820152602a60248201527f455243313135353a2061646472657373207a65726f206973206e6f742061207660448201526930b634b21037bbb732b960b11b60648201526084015b60405180910390fd5b506000818152602081815260408083206001600160a01b03861684529091529020545b92915050565b60006001600160e01b03198216636cdb3d1360e11b148061036057506001600160e01b031982166303a24d0760e21b145b8061032957506301ffc9a760e01b6001600160e01b0319831614610329565b6103876108cb565b600580546001600160a01b0319166001600160a01b0383169081179091556040517fb470247bc93cda00b99087355b926ca47d43fc2d926a1fc9dda5c26af915d06d90600090a250565b60008181526004602052604090208054606091906103ee90611622565b80601f016020809104026020016040519081016040528092919081815260200182805461041a90611622565b80156104675780601f1061043c57610100808354040283529160200191610467565b820191906000526020600020905b81548152906001019060200180831161044a57829003601f168201915b50505050509050919050565b6001600160a01b03851633148061048f575061048f853361022f565b6104ab5760405162461bcd60e51b81526004016102fd9061165c565b6104b88585858585610925565b5050505050565b606081518351146105245760405162461bcd60e51b815260206004820152602960248201527f455243313135353a206163636f756e747320616e6420696473206c656e677468604482015268040dad2e6dac2e8c6d60bb1b60648201526084016102fd565b6000835167ffffffffffffffff811115610540576105406111dd565b604051908082528060200260200182016040528015610569578160200160208202803683370190505b50905060005b84518110156105e1576105b485828151811061058d5761058d6116ab565b60200260200101518583815181106105a7576105a76116ab565b6020026020010151610296565b8282815181106105c6576105c66116ab565b60209081029190910101526105da816116d7565b905061056f565b509392505050565b6105f16108cb565b6000828152600460205260409020805461060a90611622565b1590506106505760405162461bcd60e51b815260206004820152601460248201527343414e4e4f545f5345545f5552495f545749434560601b60448201526064016102fd565b60008281526004602052604090206106688282611736565b505050565b6106756108cb565b61067f6000610b02565b565b61068c338383610b54565b5050565b600560009054906101000a90046001600160a01b03166001600160a01b031663abd5fed86040518163ffffffff1660e01b8152600401602060405180830381865afa1580156106e3573d6000803e3d6000fd5b505050506040513d601f19601f8201168201806040525081019061070791906117f6565b6001600160a01b0316336001600160a01b031614806107ad5750600560009054906101000a90046001600160a01b03166001600160a01b031663ad53b6da6040518163ffffffff1660e01b8152600401602060405180830381865afa158015610774573d6000803e3d6000fd5b505050506040513d601f19601f8201168201806040525081019061079891906117f6565b6001600160a01b0316336001600160a01b0316145b6107f15760405162461bcd60e51b81526020600482015260156024820152744e4f545f4352414654494e475f4f525f4152454e4160581b60448201526064016102fd565b61068c8260008360405180602001604052806000815250610c34565b6001600160a01b0385163314806108295750610829853361022f565b6108455760405162461bcd60e51b81526004016102fd9061165c565b6104b88585858585610d48565b61085a6108cb565b6001600160a01b0381166108bf5760405162461bcd60e51b815260206004820152602660248201527f4f776e61626c653a206e6577206f776e657220697320746865207a65726f206160448201526564647265737360d01b60648201526084016102fd565b6108c881610b02565b50565b6003546001600160a01b0316331461067f5760405162461bcd60e51b815260206004820181905260248201527f4f776e61626c653a2063616c6c6572206973206e6f7420746865206f776e657260448201526064016102fd565b81518351146109875760405162461bcd60e51b815260206004820152602860248201527f455243313135353a2069647320616e6420616d6f756e7473206c656e677468206044820152670dad2e6dac2e8c6d60c31b60648201526084016102fd565b6001600160a01b0384166109ad5760405162461bcd60e51b81526004016102fd90611813565b3360005b8451811015610a945760008582815181106109ce576109ce6116ab565b6020026020010151905060008583815181106109ec576109ec6116ab565b602090810291909101810151600084815280835260408082206001600160a01b038e168352909352919091205490915081811015610a3c5760405162461bcd60e51b81526004016102fd90611858565b6000838152602081815260408083206001600160a01b038e8116855292528083208585039055908b16825281208054849290610a799084906118a2565b9250508190555050505080610a8d906116d7565b90506109b1565b50846001600160a01b0316866001600160a01b0316826001600160a01b03167f4a39dc06d4c0dbc64b70af90fd698a233a518aa5d07e595d983b8c0526c8f7fb8787604051610ae49291906118b5565b60405180910390a4610afa818787878787610e72565b505050505050565b600380546001600160a01b038381166001600160a01b0319831681179093556040519116919082907f8be0079c531659141344cd1fd0a4f28419497f9722a3daafe3b4186f6b6457e090600090a35050565b816001600160a01b0316836001600160a01b031603610bc75760405162461bcd60e51b815260206004820152602960248201527f455243313135353a2073657474696e6720617070726f76616c20737461747573604482015268103337b91039b2b63360b91b60648201526084016102fd565b6001600160a01b03838116600081815260016020908152604080832094871680845294825291829020805460ff191686151590811790915591519182527f17307eab39ab6107e8899845ad3d59bd9653f200f220920489ca2b5937696c31910160405180910390a3505050565b6001600160a01b038416610c945760405162461bcd60e51b815260206004820152602160248201527f455243313135353a206d696e7420746f20746865207a65726f206164647265736044820152607360f81b60648201526084016102fd565b336000610ca085610fcd565b90506000610cad85610fcd565b90506000868152602081815260408083206001600160a01b038b16845290915281208054879290610cdf9084906118a2565b909155505060408051878152602081018790526001600160a01b03808a1692600092918716917fc3d58168c5ae7397731d063d5bbf3d657854427343f4c083240f7aacaa2d0f62910160405180910390a4610d3f83600089898989611018565b50505050505050565b6001600160a01b038416610d6e5760405162461bcd60e51b81526004016102fd90611813565b336000610d7a85610fcd565b90506000610d8785610fcd565b90506000868152602081815260408083206001600160a01b038c16845290915290205485811015610dca5760405162461bcd60e51b81526004016102fd90611858565b6000878152602081815260408083206001600160a01b038d8116855292528083208985039055908a16825281208054889290610e079084906118a2565b909155505060408051888152602081018890526001600160a01b03808b16928c821692918816917fc3d58168c5ae7397731d063d5bbf3d657854427343f4c083240f7aacaa2d0f62910160405180910390a4610e67848a8a8a8a8a611018565b505050505050505050565b6001600160a01b0384163b15610afa5760405163bc197c8160e01b81526001600160a01b0385169063bc197c8190610eb690899089908890889088906004016118e3565b6020604051808303816000875af1925050508015610ef1575060408051601f3d908101601f19168201909252610eee91810190611941565b60015b610f9d57610efd61195e565b806308c379a003610f365750610f1161197a565b80610f1c5750610f38565b8060405162461bcd60e51b81526004016102fd91906111ca565b505b60405162461bcd60e51b815260206004820152603460248201527f455243313135353a207472616e7366657220746f206e6f6e20455243313135356044820152732932b1b2b4bb32b91034b6b83632b6b2b73a32b960611b60648201526084016102fd565b6001600160e01b0319811663bc197c8160e01b14610d3f5760405162461bcd60e51b81526004016102fd90611a04565b60408051600180825281830190925260609160009190602080830190803683370190505090508281600081518110611007576110076116ab565b602090810291909101015292915050565b6001600160a01b0384163b15610afa5760405163f23a6e6160e01b81526001600160a01b0385169063f23a6e619061105c9089908990889088908890600401611a4c565b6020604051808303816000875af1925050508015611097575060408051601f3d908101601f1916820190925261109491810190611941565b60015b6110a357610efd61195e565b6001600160e01b0319811663f23a6e6160e01b14610d3f5760405162461bcd60e51b81526004016102fd90611a04565b6001600160a01b03811681146108c857600080fd5b600080604083850312156110fb57600080fd5b8235611106816110d3565b946020939093013593505050565b6001600160e01b0319811681146108c857600080fd5b60006020828403121561113c57600080fd5b813561114781611114565b9392505050565b60006020828403121561116057600080fd5b8135611147816110d3565b60006020828403121561117d57600080fd5b5035919050565b6000815180845260005b818110156111aa5760208185018101518683018201520161118e565b506000602082860101526020601f19601f83011685010191505092915050565b6020815260006111476020830184611184565b634e487b7160e01b600052604160045260246000fd5b601f8201601f1916810167ffffffffffffffff81118282101715611219576112196111dd565b6040525050565b600067ffffffffffffffff82111561123a5761123a6111dd565b5060051b60200190565b600082601f83011261125557600080fd5b8135602061126282611220565b60405161126f82826111f3565b83815260059390931b850182019282810191508684111561128f57600080fd5b8286015b848110156112aa5780358352918301918301611293565b509695505050505050565b600067ffffffffffffffff8311156112cf576112cf6111dd565b6040516112e6601f8501601f1916602001826111f3565b8091508381528484840111156112fb57600080fd5b83836020830137600060208583010152509392505050565b600082601f83011261132457600080fd5b611147838335602085016112b5565b600080600080600060a0868803121561134b57600080fd5b8535611356816110d3565b94506020860135611366816110d3565b9350604086013567ffffffffffffffff8082111561138357600080fd5b61138f89838a01611244565b945060608801359150808211156113a557600080fd5b6113b189838a01611244565b935060808801359150808211156113c757600080fd5b506113d488828901611313565b9150509295509295909350565b600080604083850312156113f457600080fd5b823567ffffffffffffffff8082111561140c57600080fd5b818501915085601f83011261142057600080fd5b8135602061142d82611220565b60405161143a82826111f3565b83815260059390931b850182019282810191508984111561145a57600080fd5b948201945b83861015611481578535611472816110d3565b8252948201949082019061145f565b9650508601359250508082111561149757600080fd5b506114a485828601611244565b9150509250929050565b600081518084526020808501945080840160005b838110156114de578151875295820195908201906001016114c2565b509495945050505050565b60208152600061114760208301846114ae565b6000806040838503121561150f57600080fd5b82359150602083013567ffffffffffffffff81111561152d57600080fd5b8301601f8101851361153e57600080fd5b6114a4858235602084016112b5565b6000806040838503121561156057600080fd5b823561156b816110d3565b91506020830135801515811461158057600080fd5b809150509250929050565b6000806040838503121561159e57600080fd5b82356115a9816110d3565b91506020830135611580816110d3565b600080600080600060a086880312156115d157600080fd5b85356115dc816110d3565b945060208601356115ec816110d3565b93506040860135925060608601359150608086013567ffffffffffffffff81111561161657600080fd5b6113d488828901611313565b600181811c9082168061163657607f821691505b60208210810361165657634e487b7160e01b600052602260045260246000fd5b50919050565b6020808252602f908201527f455243313135353a2063616c6c6572206973206e6f7420746f6b656e206f776e60408201526e195c881b9bdc88185c1c1c9bdd9959608a1b606082015260800190565b634e487b7160e01b600052603260045260246000fd5b634e487b7160e01b600052601160045260246000fd5b6000600182016116e9576116e96116c1565b5060010190565b601f82111561066857600081815260208120601f850160051c810160208610156117175750805b601f850160051c820191505b81811015610afa57828155600101611723565b815167ffffffffffffffff811115611750576117506111dd565b6117648161175e8454611622565b846116f0565b602080601f83116001811461179957600084156117815750858301515b600019600386901b1c1916600185901b178555610afa565b600085815260208120601f198616915b828110156117c8578886015182559484019460019091019084016117a9565b50858210156117e65787850151600019600388901b60f8161c191681555b5050505050600190811b01905550565b60006020828403121561180857600080fd5b8151611147816110d3565b60208082526025908201527f455243313135353a207472616e7366657220746f20746865207a65726f206164604082015264647265737360d81b606082015260800190565b6020808252602a908201527f455243313135353a20696e73756666696369656e742062616c616e636520666f60408201526939103a3930b739b332b960b11b606082015260800190565b80820180821115610329576103296116c1565b6040815260006118c860408301856114ae565b82810360208401526118da81856114ae565b95945050505050565b6001600160a01b0386811682528516602082015260a06040820181905260009061190f908301866114ae565b828103606084015261192181866114ae565b905082810360808401526119358185611184565b98975050505050505050565b60006020828403121561195357600080fd5b815161114781611114565b600060033d11156119775760046000803e5060005160e01c5b90565b600060443d10156119885790565b6040516003193d81016004833e81513d67ffffffffffffffff81602484011181841117156119b857505050505090565b82850191508151818111156119d05750505050505090565b843d87010160208285010111156119ea5750505050505090565b6119f9602082860101876111f3565b509095945050505050565b60208082526028908201527f455243313135353a204552433131353552656365697665722072656a656374656040820152676420746f6b656e7360c01b606082015260800190565b6001600160a01b03868116825285166020820152604081018490526060810183905260a060808201819052600090611a8690830184611184565b97965050505050505056fea264697066735822122036f3575de3383cd79841f192c04187e3a23e800e0891ae6ab10c965e4e54f6da64736f6c63430008100033",
  "devdoc": {
    "kind": "dev",
    "methods": {
      "balanceOf(address,uint256)": {
        "details": "See {IERC1155-balanceOf}. Requirements: - `account` cannot be the zero address."
      },
      "balanceOfBatch(address[],uint256[])": {
        "details": "See {IERC1155-balanceOfBatch}. Requirements: - `accounts` and `ids` must have the same length."
      },
      "getMothoraGame()": {
        "details": "Returns the address of the Mothora Game Hub Contract",
        "returns": {
          "_0": "The Mothora Game address*"
        }
      },
      "isApprovedForAll(address,address)": {
        "details": "See {IERC1155-isApprovedForAll}."
      },
      "owner()": {
        "details": "Returns the address of the current owner."
      },
      "renounceOwnership()": {
        "details": "Leaves the contract without owner. It will not be possible to call `onlyOwner` functions anymore. Can only be called by the current owner. NOTE: Renouncing ownership will leave the contract without an owner, thereby removing any functionality that is only available to the owner."
      },
      "safeBatchTransferFrom(address,address,uint256[],uint256[],bytes)": {
        "details": "See {IERC1155-safeBatchTransferFrom}."
      },
      "safeTransferFrom(address,address,uint256,uint256,bytes)": {
        "details": "See {IERC1155-safeTransferFrom}."
      },
      "setApprovalForAll(address,bool)": {
        "details": "See {IERC1155-setApprovalForAll}."
      },
      "setMothoraGame(address)": {
        "details": "Updates the address of the Mothora Game",
        "params": {
          "mothoraGameContractAddress": "The new Mothora Game address*"
        }
      },
      "supportsInterface(bytes4)": {
        "details": "See {IERC165-supportsInterface}."
      },
      "transferOwnership(address)": {
        "details": "Transfers ownership of the contract to a new account (`newOwner`). Can only be called by the current owner."
      }
    },
    "version": 1
  },
  "userdoc": {
    "kind": "user",
    "methods": {},
    "version": 1
  },
  "storageLayout": {
    "storage": [
      {
        "astId": 2327,
        "contract": "contracts/modules/Artifacts.sol:Artifacts",
        "label": "_balances",
        "offset": 0,
        "slot": "0",
        "type": "t_mapping(t_uint256,t_mapping(t_address,t_uint256))"
      },
      {
        "astId": 2333,
        "contract": "contracts/modules/Artifacts.sol:Artifacts",
        "label": "_operatorApprovals",
        "offset": 0,
        "slot": "1",
        "type": "t_mapping(t_address,t_mapping(t_address,t_bool))"
      },
      {
        "astId": 2335,
        "contract": "contracts/modules/Artifacts.sol:Artifacts",
        "label": "_uri",
        "offset": 0,
        "slot": "2",
        "type": "t_string_storage"
      },
      {
        "astId": 2156,
        "contract": "contracts/modules/Artifacts.sol:Artifacts",
        "label": "_owner",
        "offset": 0,
        "slot": "3",
        "type": "t_address"
      },
      {
        "astId": 6884,
        "contract": "contracts/modules/Artifacts.sol:Artifacts",
        "label": "_uris",
        "offset": 0,
        "slot": "4",
        "type": "t_mapping(t_uint256,t_string_storage)"
      },
      {
        "astId": 6890,
        "contract": "contracts/modules/Artifacts.sol:Artifacts",
        "label": "mothoraGameContract",
        "offset": 0,
        "slot": "5",
        "type": "t_contract(MothoraGame)6109"
      }
    ],
    "types": {
      "t_address": {
        "encoding": "inplace",
        "label": "address",
        "numberOfBytes": "20"
      },
      "t_bool": {
        "encoding": "inplace",
        "label": "bool",
        "numberOfBytes": "1"
      },
      "t_contract(MothoraGame)6109": {
        "encoding": "inplace",
        "label": "contract MothoraGame",
        "numberOfBytes": "20"
      },
      "t_mapping(t_address,t_bool)": {
        "encoding": "mapping",
        "key": "t_address",
        "label": "mapping(address => bool)",
        "numberOfBytes": "32",
        "value": "t_bool"
      },
      "t_mapping(t_address,t_mapping(t_address,t_bool))": {
        "encoding": "mapping",
        "key": "t_address",
        "label": "mapping(address => mapping(address => bool))",
        "numberOfBytes": "32",
        "value": "t_mapping(t_address,t_bool)"
      },
      "t_mapping(t_address,t_uint256)": {
        "encoding": "mapping",
        "key": "t_address",
        "label": "mapping(address => uint256)",
        "numberOfBytes": "32",
        "value": "t_uint256"
      },
      "t_mapping(t_uint256,t_mapping(t_address,t_uint256))": {
        "encoding": "mapping",
        "key": "t_uint256",
        "label": "mapping(uint256 => mapping(address => uint256))",
        "numberOfBytes": "32",
        "value": "t_mapping(t_address,t_uint256)"
      },
      "t_mapping(t_uint256,t_string_storage)": {
        "encoding": "mapping",
        "key": "t_uint256",
        "label": "mapping(uint256 => string)",
        "numberOfBytes": "32",
        "value": "t_string_storage"
      },
      "t_string_storage": {
        "encoding": "bytes",
        "label": "string",
        "numberOfBytes": "32"
      },
      "t_uint256": {
        "encoding": "inplace",
        "label": "uint256",
        "numberOfBytes": "32"
      }
    }
  }
}