{
  "address": "0x20d7e5D10B16b3fcA8Ea2EE93bb704C8B5894Ad5",
  "abi": [
    {
      "inputs": [
        {
          "internalType": "string",
          "name": "_initialFolder",
          "type": "string"
        },
        {
          "internalType": "address",
          "name": "_mothoraGameAddress",
          "type": "address"
        }
      ],
      "stateMutability": "nonpayable",
      "type": "constructor"
    },
    {
      "anonymous": false,
      "inputs": [
        {
          "indexed": true,
          "internalType": "address",
          "name": "account",
          "type": "address"
        },
        {
          "indexed": true,
          "internalType": "address",
          "name": "operator",
          "type": "address"
        },
        {
          "indexed": false,
          "internalType": "bool",
          "name": "approved",
          "type": "bool"
        }
      ],
      "name": "ApprovalForAll",
      "type": "event"
    },
    {
      "anonymous": false,
      "inputs": [
        {
          "indexed": true,
          "internalType": "address",
          "name": "mothoraGameContractAddress",
          "type": "address"
        }
      ],
      "name": "MothoraGameAddressUpdated",
      "type": "event"
    },
    {
      "anonymous": false,
      "inputs": [
        {
          "indexed": true,
          "internalType": "address",
          "name": "previousOwner",
          "type": "address"
        },
        {
          "indexed": true,
          "internalType": "address",
          "name": "newOwner",
          "type": "address"
        }
      ],
      "name": "OwnershipTransferred",
      "type": "event"
    },
    {
      "anonymous": false,
      "inputs": [
        {
          "indexed": true,
          "internalType": "address",
          "name": "operator",
          "type": "address"
        },
        {
          "indexed": true,
          "internalType": "address",
          "name": "from",
          "type": "address"
        },
        {
          "indexed": true,
          "internalType": "address",
          "name": "to",
          "type": "address"
        },
        {
          "indexed": false,
          "internalType": "uint256[]",
          "name": "ids",
          "type": "uint256[]"
        },
        {
          "indexed": false,
          "internalType": "uint256[]",
          "name": "values",
          "type": "uint256[]"
        }
      ],
      "name": "TransferBatch",
      "type": "event"
    },
    {
      "anonymous": false,
      "inputs": [
        {
          "indexed": true,
          "internalType": "address",
          "name": "operator",
          "type": "address"
        },
        {
          "indexed": true,
          "internalType": "address",
          "name": "from",
          "type": "address"
        },
        {
          "indexed": true,
          "internalType": "address",
          "name": "to",
          "type": "address"
        },
        {
          "indexed": false,
          "internalType": "uint256",
          "name": "id",
          "type": "uint256"
        },
        {
          "indexed": false,
          "internalType": "uint256",
          "name": "value",
          "type": "uint256"
        }
      ],
      "name": "TransferSingle",
      "type": "event"
    },
    {
      "anonymous": false,
      "inputs": [
        {
          "indexed": false,
          "internalType": "string",
          "name": "value",
          "type": "string"
        },
        {
          "indexed": true,
          "internalType": "uint256",
          "name": "id",
          "type": "uint256"
        }
      ],
      "name": "URI",
      "type": "event"
    },
    {
      "inputs": [],
      "name": "CONGLOMERATE",
      "outputs": [
        {
          "internalType": "uint256",
          "name": "",
          "type": "uint256"
        }
      ],
      "stateMutability": "view",
      "type": "function"
    },
    {
      "inputs": [],
      "name": "DOC",
      "outputs": [
        {
          "internalType": "uint256",
          "name": "",
          "type": "uint256"
        }
      ],
      "stateMutability": "view",
      "type": "function"
    },
    {
      "inputs": [],
      "name": "THOROKS",
      "outputs": [
        {
          "internalType": "uint256",
          "name": "",
          "type": "uint256"
        }
      ],
      "stateMutability": "view",
      "type": "function"
    },
    {
      "inputs": [
        {
          "internalType": "address",
          "name": "account",
          "type": "address"
        },
        {
          "internalType": "uint256",
          "name": "id",
          "type": "uint256"
        }
      ],
      "name": "balanceOf",
      "outputs": [
        {
          "internalType": "uint256",
          "name": "",
          "type": "uint256"
        }
      ],
      "stateMutability": "view",
      "type": "function"
    },
    {
      "inputs": [
        {
          "internalType": "address[]",
          "name": "accounts",
          "type": "address[]"
        },
        {
          "internalType": "uint256[]",
          "name": "ids",
          "type": "uint256[]"
        }
      ],
      "name": "balanceOfBatch",
      "outputs": [
        {
          "internalType": "uint256[]",
          "name": "",
          "type": "uint256[]"
        }
      ],
      "stateMutability": "view",
      "type": "function"
    },
    {
      "inputs": [],
      "name": "getMothoraGame",
      "outputs": [
        {
          "internalType": "address",
          "name": "",
          "type": "address"
        }
      ],
      "stateMutability": "view",
      "type": "function"
    },
    {
      "inputs": [
        {
          "internalType": "address",
          "name": "account",
          "type": "address"
        },
        {
          "internalType": "address",
          "name": "operator",
          "type": "address"
        }
      ],
      "name": "isApprovedForAll",
      "outputs": [
        {
          "internalType": "bool",
          "name": "",
          "type": "bool"
        }
      ],
      "stateMutability": "view",
      "type": "function"
    },
    {
      "inputs": [
        {
          "internalType": "address",
          "name": "_recipient",
          "type": "address"
        },
        {
          "internalType": "uint256",
          "name": "_id",
          "type": "uint256"
        }
      ],
      "name": "mintCharacter",
      "outputs": [],
      "stateMutability": "nonpayable",
      "type": "function"
    },
    {
      "inputs": [],
      "name": "owner",
      "outputs": [
        {
          "internalType": "address",
          "name": "",
          "type": "address"
        }
      ],
      "stateMutability": "view",
      "type": "function"
    },
    {
      "inputs": [],
      "name": "renounceOwnership",
      "outputs": [],
      "stateMutability": "nonpayable",
      "type": "function"
    },
    {
      "inputs": [
        {
          "internalType": "address",
          "name": "from",
          "type": "address"
        },
        {
          "internalType": "address",
          "name": "to",
          "type": "address"
        },
        {
          "internalType": "uint256[]",
          "name": "ids",
          "type": "uint256[]"
        },
        {
          "internalType": "uint256[]",
          "name": "amounts",
          "type": "uint256[]"
        },
        {
          "internalType": "bytes",
          "name": "data",
          "type": "bytes"
        }
      ],
      "name": "safeBatchTransferFrom",
      "outputs": [],
      "stateMutability": "nonpayable",
      "type": "function"
    },
    {
      "inputs": [
        {
          "internalType": "address",
          "name": "from",
          "type": "address"
        },
        {
          "internalType": "address",
          "name": "to",
          "type": "address"
        },
        {
          "internalType": "uint256",
          "name": "id",
          "type": "uint256"
        },
        {
          "internalType": "uint256",
          "name": "amount",
          "type": "uint256"
        },
        {
          "internalType": "bytes",
          "name": "data",
          "type": "bytes"
        }
      ],
      "name": "safeTransferFrom",
      "outputs": [],
      "stateMutability": "nonpayable",
      "type": "function"
    },
    {
      "inputs": [
        {
          "internalType": "address",
          "name": "operator",
          "type": "address"
        },
        {
          "internalType": "bool",
          "name": "approved",
          "type": "bool"
        }
      ],
      "name": "setApprovalForAll",
      "outputs": [],
      "stateMutability": "nonpayable",
      "type": "function"
    },
    {
      "inputs": [
        {
          "internalType": "address",
          "name": "mothoraGameContractAddress",
          "type": "address"
        }
      ],
      "name": "setMothoraGame",
      "outputs": [],
      "stateMutability": "nonpayable",
      "type": "function"
    },
    {
      "inputs": [
        {
          "internalType": "uint256",
          "name": "tokenId",
          "type": "uint256"
        },
        {
          "internalType": "string",
          "name": "NFTuri",
          "type": "string"
        }
      ],
      "name": "setTokenUri",
      "outputs": [],
      "stateMutability": "nonpayable",
      "type": "function"
    },
    {
      "inputs": [
        {
          "internalType": "bytes4",
          "name": "interfaceId",
          "type": "bytes4"
        }
      ],
      "name": "supportsInterface",
      "outputs": [
        {
          "internalType": "bool",
          "name": "",
          "type": "bool"
        }
      ],
      "stateMutability": "view",
      "type": "function"
    },
    {
      "inputs": [
        {
          "internalType": "address",
          "name": "newOwner",
          "type": "address"
        }
      ],
      "name": "transferOwnership",
      "outputs": [],
      "stateMutability": "nonpayable",
      "type": "function"
    },
    {
      "inputs": [
        {
          "internalType": "uint256",
          "name": "tokenId",
          "type": "uint256"
        }
      ],
      "name": "uri",
      "outputs": [
        {
          "internalType": "string",
          "name": "",
          "type": "string"
        }
      ],
      "stateMutability": "view",
      "type": "function"
    }
  ],
  "transactionHash": "0x6a362fdf3e29e693d1628f1ef4c70e120d79353b25dea03da4cbd805e3b4c9a7",
  "args": [
    "https://bafybeiex2io5lawckt4bgjjyhmvfy7yk72s4fmhuxj2rgehwzaa6lderkm.ipfs.dweb.link/",
    "0xD0a4316a9e1E197b41Cf6530A1bbAd30A6cCc6B7"
  ],
  "numDeployments": 1,
  "solcInputHash": "c7aa843f5f3e899c249213340a57bc41",
  "bytecode": "0x60806040523480156200001157600080fd5b5060405162001fb838038062001fb88339810160408190526200003491620002aa565b8160405160200162000047919062000377565b60408051601f198184030181529190526200006281620000f6565b506200006e3362000108565b6200009d600183604051602001620000879190620003a6565b60408051601f198184030181529190526200015a565b620000b6600283604051602001620000879190620003db565b620000cf60038360405160200162000087919062000410565b600580546001600160a01b0319166001600160a01b0392909216919091179055506200059f565b6002620001048282620004d3565b5050565b600380546001600160a01b038381166001600160a01b0319831681179093556040519116919082907f8be0079c531659141344cd1fd0a4f28419497f9722a3daafe3b4186f6b6457e090600090a35050565b62000164620001f3565b600082815260046020526040902080546200017f9062000445565b159050620001d45760405162461bcd60e51b815260206004820152601460248201527f43414e4e4f545f5345545f5552495f545749434500000000000000000000000060448201526064015b60405180910390fd5b6000828152600460205260409020620001ee8282620004d3565b505050565b6003546001600160a01b031633146200024f5760405162461bcd60e51b815260206004820181905260248201527f4f776e61626c653a2063616c6c6572206973206e6f7420746865206f776e65726044820152606401620001cb565b565b634e487b7160e01b600052604160045260246000fd5b60005b83811015620002845781810151838201526020016200026a565b50506000910152565b80516001600160a01b0381168114620002a557600080fd5b919050565b60008060408385031215620002be57600080fd5b82516001600160401b0380821115620002d657600080fd5b818501915085601f830112620002eb57600080fd5b81518181111562000300576200030062000251565b604051601f8201601f19908116603f011681019083821181831017156200032b576200032b62000251565b816040528281528860208487010111156200034557600080fd5b6200035883602083016020880162000267565b80965050505050506200036e602084016200028d565b90509250929050565b600082516200038b81846020870162000267565b683db4b23e973539b7b760b91b920191825250600901919050565b60008251620003ba81846020870162000267565b603160f81b92019182525064173539b7b760d91b6001820152600601919050565b60008251620003ef81846020870162000267565b601960f91b92019182525064173539b7b760d91b6001820152600601919050565b600082516200042481846020870162000267565b603360f81b92019182525064173539b7b760d91b6001820152600601919050565b600181811c908216806200045a57607f821691505b6020821081036200047b57634e487b7160e01b600052602260045260246000fd5b50919050565b601f821115620001ee57600081815260208120601f850160051c81016020861015620004aa5750805b601f850160051c820191505b81811015620004cb57828155600101620004b6565b505050505050565b81516001600160401b03811115620004ef57620004ef62000251565b620005078162000500845462000445565b8462000481565b602080601f8311600181146200053f5760008415620005265750858301515b600019600386901b1c1916600185901b178555620004cb565b600085815260208120601f198616915b8281101562000570578886015182559484019460019091019084016200054f565b50858210156200058f5787850151600019600388901b60f8161c191681555b5050505050600190811b01905550565b611a0980620005af6000396000f3fe608060405234801561001057600080fd5b50600436106101155760003560e01c80635baa3a07116100a2578063d0ca5f6c11610071578063d0ca5f6c14610241578063d0fda67a14610252578063e985e9c51461025a578063f242432a14610296578063f2fde38b146102a957600080fd5b80635baa3a07146101f9578063715018a6146102015780638da5cb5b14610209578063a22cb4651461022e57600080fd5b806314ff845c116100e957806314ff845c146101985780632eb2c2d6146101ab57806333752f42146101be5780634e1273f4146101c657806357f7789e146101e657600080fd5b8062fdd58e1461011a57806301ffc9a71461014057806302ee2700146101635780630e89341c14610178575b600080fd5b61012d610128366004611052565b6102bc565b6040519081526020015b60405180910390f35b61015361014e366004611092565b610355565b6040519015158152602001610137565b6101766101713660046110b6565b6103a5565b005b61018b6101863660046110d1565b6103f7565b6040516101379190611130565b6101766101a6366004611052565b610499565b6101766101b9366004611299565b610557565b61012d600181565b6101d96101d4366004611343565b6105a3565b6040516101379190611449565b6101766101f436600461145c565b6106cd565b61012d600381565b610176610751565b6003546001600160a01b03165b6040516001600160a01b039091168152602001610137565b61017661023c3660046114ad565b610765565b6005546001600160a01b0316610216565b61012d600281565b6101536102683660046114e9565b6001600160a01b03918216600090815260016020908152604080832093909416825291909152205460ff1690565b6101766102a436600461151c565b610770565b6101766102b73660046110b6565b6107b5565b60006001600160a01b03831661032c5760405162461bcd60e51b815260206004820152602a60248201527f455243313135353a2061646472657373207a65726f206973206e6f742061207660448201526930b634b21037bbb732b960b11b60648201526084015b60405180910390fd5b506000818152602081815260408083206001600160a01b03861684529091529020545b92915050565b60006001600160e01b03198216636cdb3d1360e11b148061038657506001600160e01b031982166303a24d0760e21b145b8061034f57506301ffc9a760e01b6001600160e01b031983161461034f565b6103ad61082e565b600580546001600160a01b0319166001600160a01b0383169081179091556040517fb470247bc93cda00b99087355b926ca47d43fc2d926a1fc9dda5c26af915d06d90600090a250565b600081815260046020526040902080546060919061041490611581565b80601f016020809104026020016040519081016040528092919081815260200182805461044090611581565b801561048d5780601f106104625761010080835404028352916020019161048d565b820191906000526020600020905b81548152906001019060200180831161047057829003601f168201915b50505050509050919050565b6005546001600160a01b031633146104e65760405162461bcd60e51b815260206004820152601060248201526f4e4f545f4d4f54484f52415f47414d4560801b6044820152606401610323565b60018114806104f55750600281145b806105005750600381145b6105375760405162461bcd60e51b815260206004820152600860248201526715d493d391d7d25160c21b6044820152606401610323565b6105538282600160405180602001604052806000815250610888565b5050565b6001600160a01b03851633148061057357506105738533610268565b61058f5760405162461bcd60e51b8152600401610323906115bb565b61059c858585858561099c565b5050505050565b606081518351146106085760405162461bcd60e51b815260206004820152602960248201527f455243313135353a206163636f756e747320616e6420696473206c656e677468604482015268040dad2e6dac2e8c6d60bb1b6064820152608401610323565b6000835167ffffffffffffffff81111561062457610624611143565b60405190808252806020026020018201604052801561064d578160200160208202803683370190505b50905060005b84518110156106c5576106988582815181106106715761067161160a565b602002602001015185838151811061068b5761068b61160a565b60200260200101516102bc565b8282815181106106aa576106aa61160a565b60209081029190910101526106be81611636565b9050610653565b509392505050565b6106d561082e565b600082815260046020526040902080546106ee90611581565b1590506107345760405162461bcd60e51b815260206004820152601460248201527343414e4e4f545f5345545f5552495f545749434560601b6044820152606401610323565b600082815260046020526040902061074c8282611695565b505050565b61075961082e565b6107636000610b79565b565b610553338383610bcb565b6001600160a01b03851633148061078c575061078c8533610268565b6107a85760405162461bcd60e51b8152600401610323906115bb565b61059c8585858585610cab565b6107bd61082e565b6001600160a01b0381166108225760405162461bcd60e51b815260206004820152602660248201527f4f776e61626c653a206e6577206f776e657220697320746865207a65726f206160448201526564647265737360d01b6064820152608401610323565b61082b81610b79565b50565b6003546001600160a01b031633146107635760405162461bcd60e51b815260206004820181905260248201527f4f776e61626c653a2063616c6c6572206973206e6f7420746865206f776e65726044820152606401610323565b6001600160a01b0384166108e85760405162461bcd60e51b815260206004820152602160248201527f455243313135353a206d696e7420746f20746865207a65726f206164647265736044820152607360f81b6064820152608401610323565b3360006108f485610dd5565b9050600061090185610dd5565b90506000868152602081815260408083206001600160a01b038b16845290915281208054879290610933908490611755565b909155505060408051878152602081018790526001600160a01b03808a1692600092918716917fc3d58168c5ae7397731d063d5bbf3d657854427343f4c083240f7aacaa2d0f62910160405180910390a461099383600089898989610e20565b50505050505050565b81518351146109fe5760405162461bcd60e51b815260206004820152602860248201527f455243313135353a2069647320616e6420616d6f756e7473206c656e677468206044820152670dad2e6dac2e8c6d60c31b6064820152608401610323565b6001600160a01b038416610a245760405162461bcd60e51b815260040161032390611768565b3360005b8451811015610b0b576000858281518110610a4557610a4561160a565b602002602001015190506000858381518110610a6357610a6361160a565b602090810291909101810151600084815280835260408082206001600160a01b038e168352909352919091205490915081811015610ab35760405162461bcd60e51b8152600401610323906117ad565b6000838152602081815260408083206001600160a01b038e8116855292528083208585039055908b16825281208054849290610af0908490611755565b9250508190555050505080610b0490611636565b9050610a28565b50846001600160a01b0316866001600160a01b0316826001600160a01b03167f4a39dc06d4c0dbc64b70af90fd698a233a518aa5d07e595d983b8c0526c8f7fb8787604051610b5b9291906117f7565b60405180910390a4610b71818787878787610f7b565b505050505050565b600380546001600160a01b038381166001600160a01b0319831681179093556040519116919082907f8be0079c531659141344cd1fd0a4f28419497f9722a3daafe3b4186f6b6457e090600090a35050565b816001600160a01b0316836001600160a01b031603610c3e5760405162461bcd60e51b815260206004820152602960248201527f455243313135353a2073657474696e6720617070726f76616c20737461747573604482015268103337b91039b2b63360b91b6064820152608401610323565b6001600160a01b03838116600081815260016020908152604080832094871680845294825291829020805460ff191686151590811790915591519182527f17307eab39ab6107e8899845ad3d59bd9653f200f220920489ca2b5937696c31910160405180910390a3505050565b6001600160a01b038416610cd15760405162461bcd60e51b815260040161032390611768565b336000610cdd85610dd5565b90506000610cea85610dd5565b90506000868152602081815260408083206001600160a01b038c16845290915290205485811015610d2d5760405162461bcd60e51b8152600401610323906117ad565b6000878152602081815260408083206001600160a01b038d8116855292528083208985039055908a16825281208054889290610d6a908490611755565b909155505060408051888152602081018890526001600160a01b03808b16928c821692918816917fc3d58168c5ae7397731d063d5bbf3d657854427343f4c083240f7aacaa2d0f62910160405180910390a4610dca848a8a8a8a8a610e20565b505050505050505050565b60408051600180825281830190925260609160009190602080830190803683370190505090508281600081518110610e0f57610e0f61160a565b602090810291909101015292915050565b6001600160a01b0384163b15610b715760405163f23a6e6160e01b81526001600160a01b0385169063f23a6e6190610e649089908990889088908890600401611825565b6020604051808303816000875af1925050508015610e9f575060408051601f3d908101601f19168201909252610e9c9181019061186a565b60015b610f4b57610eab611887565b806308c379a003610ee45750610ebf6118a3565b80610eca5750610ee6565b8060405162461bcd60e51b81526004016103239190611130565b505b60405162461bcd60e51b815260206004820152603460248201527f455243313135353a207472616e7366657220746f206e6f6e20455243313135356044820152732932b1b2b4bb32b91034b6b83632b6b2b73a32b960611b6064820152608401610323565b6001600160e01b0319811663f23a6e6160e01b146109935760405162461bcd60e51b81526004016103239061192d565b6001600160a01b0384163b15610b715760405163bc197c8160e01b81526001600160a01b0385169063bc197c8190610fbf9089908990889088908890600401611975565b6020604051808303816000875af1925050508015610ffa575060408051601f3d908101601f19168201909252610ff79181019061186a565b60015b61100657610eab611887565b6001600160e01b0319811663bc197c8160e01b146109935760405162461bcd60e51b81526004016103239061192d565b80356001600160a01b038116811461104d57600080fd5b919050565b6000806040838503121561106557600080fd5b61106e83611036565b946020939093013593505050565b6001600160e01b03198116811461082b57600080fd5b6000602082840312156110a457600080fd5b81356110af8161107c565b9392505050565b6000602082840312156110c857600080fd5b6110af82611036565b6000602082840312156110e357600080fd5b5035919050565b6000815180845260005b81811015611110576020818501810151868301820152016110f4565b506000602082860101526020601f19601f83011685010191505092915050565b6020815260006110af60208301846110ea565b634e487b7160e01b600052604160045260246000fd5b601f8201601f1916810167ffffffffffffffff8111828210171561117f5761117f611143565b6040525050565b600067ffffffffffffffff8211156111a0576111a0611143565b5060051b60200190565b600082601f8301126111bb57600080fd5b813560206111c882611186565b6040516111d58282611159565b83815260059390931b85018201928281019150868411156111f557600080fd5b8286015b8481101561121057803583529183019183016111f9565b509695505050505050565b600067ffffffffffffffff83111561123557611235611143565b60405161124c601f8501601f191660200182611159565b80915083815284848401111561126157600080fd5b83836020830137600060208583010152509392505050565b600082601f83011261128a57600080fd5b6110af8383356020850161121b565b600080600080600060a086880312156112b157600080fd5b6112ba86611036565b94506112c860208701611036565b9350604086013567ffffffffffffffff808211156112e557600080fd5b6112f189838a016111aa565b9450606088013591508082111561130757600080fd5b61131389838a016111aa565b9350608088013591508082111561132957600080fd5b5061133688828901611279565b9150509295509295909350565b6000806040838503121561135657600080fd5b823567ffffffffffffffff8082111561136e57600080fd5b818501915085601f83011261138257600080fd5b8135602061138f82611186565b60405161139c8282611159565b83815260059390931b85018201928281019150898411156113bc57600080fd5b948201945b838610156113e1576113d286611036565b825294820194908201906113c1565b965050860135925050808211156113f757600080fd5b50611404858286016111aa565b9150509250929050565b600081518084526020808501945080840160005b8381101561143e57815187529582019590820190600101611422565b509495945050505050565b6020815260006110af602083018461140e565b6000806040838503121561146f57600080fd5b82359150602083013567ffffffffffffffff81111561148d57600080fd5b8301601f8101851361149e57600080fd5b6114048582356020840161121b565b600080604083850312156114c057600080fd5b6114c983611036565b9150602083013580151581146114de57600080fd5b809150509250929050565b600080604083850312156114fc57600080fd5b61150583611036565b915061151360208401611036565b90509250929050565b600080600080600060a0868803121561153457600080fd5b61153d86611036565b945061154b60208701611036565b93506040860135925060608601359150608086013567ffffffffffffffff81111561157557600080fd5b61133688828901611279565b600181811c9082168061159557607f821691505b6020821081036115b557634e487b7160e01b600052602260045260246000fd5b50919050565b6020808252602f908201527f455243313135353a2063616c6c6572206973206e6f7420746f6b656e206f776e60408201526e195c881b9bdc88185c1c1c9bdd9959608a1b606082015260800190565b634e487b7160e01b600052603260045260246000fd5b634e487b7160e01b600052601160045260246000fd5b60006001820161164857611648611620565b5060010190565b601f82111561074c57600081815260208120601f850160051c810160208610156116765750805b601f850160051c820191505b81811015610b7157828155600101611682565b815167ffffffffffffffff8111156116af576116af611143565b6116c3816116bd8454611581565b8461164f565b602080601f8311600181146116f857600084156116e05750858301515b600019600386901b1c1916600185901b178555610b71565b600085815260208120601f198616915b8281101561172757888601518255948401946001909101908401611708565b50858210156117455787850151600019600388901b60f8161c191681555b5050505050600190811b01905550565b8082018082111561034f5761034f611620565b60208082526025908201527f455243313135353a207472616e7366657220746f20746865207a65726f206164604082015264647265737360d81b606082015260800190565b6020808252602a908201527f455243313135353a20696e73756666696369656e742062616c616e636520666f60408201526939103a3930b739b332b960b11b606082015260800190565b60408152600061180a604083018561140e565b828103602084015261181c818561140e565b95945050505050565b6001600160a01b03868116825285166020820152604081018490526060810183905260a06080820181905260009061185f908301846110ea565b979650505050505050565b60006020828403121561187c57600080fd5b81516110af8161107c565b600060033d11156118a05760046000803e5060005160e01c5b90565b600060443d10156118b15790565b6040516003193d81016004833e81513d67ffffffffffffffff81602484011181841117156118e157505050505090565b82850191508151818111156118f95750505050505090565b843d87010160208285010111156119135750505050505090565b61192260208286010187611159565b509095945050505050565b60208082526028908201527f455243313135353a204552433131353552656365697665722072656a656374656040820152676420746f6b656e7360c01b606082015260800190565b6001600160a01b0386811682528516602082015260a0604082018190526000906119a19083018661140e565b82810360608401526119b3818661140e565b905082810360808401526119c781856110ea565b9897505050505050505056fea2646970667358221220a3f9ff9183f89f719c369af12627949fdcda59bda0bcb71eb09afb677059b99a64736f6c63430008100033",
  "devdoc": {
    "kind": "dev",
    "methods": {
      "balanceOf(address,uint256)": {
        "details": "See {IERC1155-balanceOf}. Requirements: - `account` cannot be the zero address."
      },
      "balanceOfBatch(address[],uint256[])": {
        "details": "See {IERC1155-balanceOfBatch}. Requirements: - `accounts` and `ids` must have the same length."
      },
      "getMothoraGame()": {
        "details": "Returns the address of the Mothora Game Hub Contract",
        "returns": {
          "_0": "The Mothora Game address*"
        }
      },
      "isApprovedForAll(address,address)": {
        "details": "See {IERC1155-isApprovedForAll}."
      },
      "owner()": {
        "details": "Returns the address of the current owner."
      },
      "renounceOwnership()": {
        "details": "Leaves the contract without owner. It will not be possible to call `onlyOwner` functions anymore. Can only be called by the current owner. NOTE: Renouncing ownership will leave the contract without an owner, thereby removing any functionality that is only available to the owner."
      },
      "safeBatchTransferFrom(address,address,uint256[],uint256[],bytes)": {
        "details": "See {IERC1155-safeBatchTransferFrom}."
      },
      "safeTransferFrom(address,address,uint256,uint256,bytes)": {
        "details": "See {IERC1155-safeTransferFrom}."
      },
      "setApprovalForAll(address,bool)": {
        "details": "See {IERC1155-setApprovalForAll}."
      },
      "setMothoraGame(address)": {
        "details": "Updates the address of the Mothora Game",
        "params": {
          "mothoraGameContractAddress": "The new Mothora Game address*"
        }
      },
      "supportsInterface(bytes4)": {
        "details": "See {IERC165-supportsInterface}."
      },
      "transferOwnership(address)": {
        "details": "Transfers ownership of the contract to a new account (`newOwner`). Can only be called by the current owner."
      }
    },
    "version": 1
  },
  "userdoc": {
    "kind": "user",
    "methods": {},
    "version": 1
  },
  "storageLayout": {
    "storage": [
      {
        "astId": 2327,
        "contract": "contracts/modules/Cosmetics.sol:Cosmetics",
        "label": "_balances",
        "offset": 0,
        "slot": "0",
        "type": "t_mapping(t_uint256,t_mapping(t_address,t_uint256))"
      },
      {
        "astId": 2333,
        "contract": "contracts/modules/Cosmetics.sol:Cosmetics",
        "label": "_operatorApprovals",
        "offset": 0,
        "slot": "1",
        "type": "t_mapping(t_address,t_mapping(t_address,t_bool))"
      },
      {
        "astId": 2335,
        "contract": "contracts/modules/Cosmetics.sol:Cosmetics",
        "label": "_uri",
        "offset": 0,
        "slot": "2",
        "type": "t_string_storage"
      },
      {
        "astId": 2156,
        "contract": "contracts/modules/Cosmetics.sol:Cosmetics",
        "label": "_owner",
        "offset": 0,
        "slot": "3",
        "type": "t_address"
      },
      {
        "astId": 7087,
        "contract": "contracts/modules/Cosmetics.sol:Cosmetics",
        "label": "_uris",
        "offset": 0,
        "slot": "4",
        "type": "t_mapping(t_uint256,t_string_storage)"
      },
      {
        "astId": 7099,
        "contract": "contracts/modules/Cosmetics.sol:Cosmetics",
        "label": "mothoraGameContract",
        "offset": 0,
        "slot": "5",
        "type": "t_contract(MothoraGame)6109"
      }
    ],
    "types": {
      "t_address": {
        "encoding": "inplace",
        "label": "address",
        "numberOfBytes": "20"
      },
      "t_bool": {
        "encoding": "inplace",
        "label": "bool",
        "numberOfBytes": "1"
      },
      "t_contract(MothoraGame)6109": {
        "encoding": "inplace",
        "label": "contract MothoraGame",
        "numberOfBytes": "20"
      },
      "t_mapping(t_address,t_bool)": {
        "encoding": "mapping",
        "key": "t_address",
        "label": "mapping(address => bool)",
        "numberOfBytes": "32",
        "value": "t_bool"
      },
      "t_mapping(t_address,t_mapping(t_address,t_bool))": {
        "encoding": "mapping",
        "key": "t_address",
        "label": "mapping(address => mapping(address => bool))",
        "numberOfBytes": "32",
        "value": "t_mapping(t_address,t_bool)"
      },
      "t_mapping(t_address,t_uint256)": {
        "encoding": "mapping",
        "key": "t_address",
        "label": "mapping(address => uint256)",
        "numberOfBytes": "32",
        "value": "t_uint256"
      },
      "t_mapping(t_uint256,t_mapping(t_address,t_uint256))": {
        "encoding": "mapping",
        "key": "t_uint256",
        "label": "mapping(uint256 => mapping(address => uint256))",
        "numberOfBytes": "32",
        "value": "t_mapping(t_address,t_uint256)"
      },
      "t_mapping(t_uint256,t_string_storage)": {
        "encoding": "mapping",
        "key": "t_uint256",
        "label": "mapping(uint256 => string)",
        "numberOfBytes": "32",
        "value": "t_string_storage"
      },
      "t_string_storage": {
        "encoding": "bytes",
        "label": "string",
        "numberOfBytes": "32"
      },
      "t_uint256": {
        "encoding": "inplace",
        "label": "uint256",
        "numberOfBytes": "32"
      }
    }
  }
}