{
  "address": "0x7F8b7F2c46D23AE6654f855821c22B2f74a94309",
  "abi": [
    {
      "inputs": [
        {
          "internalType": "contract MothoraGame",
          "name": "_mothoraGame",
          "type": "address"
        },
        {
          "internalType": "uint256",
          "name": "_epochRewardsPercentage",
          "type": "uint256"
        },
        {
          "internalType": "uint256",
          "name": "_epochDuration",
          "type": "uint256"
        }
      ],
      "stateMutability": "nonpayable",
      "type": "constructor"
    },
    {
      "anonymous": false,
      "inputs": [
        {
          "indexed": true,
          "internalType": "address",
          "name": "mothoraGameContractAddress",
          "type": "address"
        }
      ],
      "name": "MothoraGameAddressUpdated",
      "type": "event"
    },
    {
      "anonymous": false,
      "inputs": [
        {
          "indexed": true,
          "internalType": "address",
          "name": "previousOwner",
          "type": "address"
        },
        {
          "indexed": true,
          "internalType": "address",
          "name": "newOwner",
          "type": "address"
        }
      ],
      "name": "OwnershipTransferred",
      "type": "event"
    },
    {
      "inputs": [
        {
          "internalType": "address",
          "name": "",
          "type": "address"
        }
      ],
      "name": "RewardsBalance",
      "outputs": [
        {
          "internalType": "uint256",
          "name": "",
          "type": "uint256"
        }
      ],
      "stateMutability": "view",
      "type": "function"
    },
    {
      "inputs": [
        {
          "internalType": "bool",
          "name": "autocompound",
          "type": "bool"
        }
      ],
      "name": "claimEpochRewards",
      "outputs": [],
      "stateMutability": "nonpayable",
      "type": "function"
    },
    {
      "inputs": [],
      "name": "distributeRewards",
      "outputs": [],
      "stateMutability": "nonpayable",
      "type": "function"
    },
    {
      "inputs": [
        {
          "internalType": "uint256",
          "name": "numerator",
          "type": "uint256"
        },
        {
          "internalType": "uint256",
          "name": "denominator",
          "type": "uint256"
        },
        {
          "internalType": "uint256",
          "name": "precision",
          "type": "uint256"
        }
      ],
      "name": "divider",
      "outputs": [
        {
          "internalType": "uint256",
          "name": "",
          "type": "uint256"
        }
      ],
      "stateMutability": "pure",
      "type": "function"
    },
    {
      "inputs": [],
      "name": "epochDuration",
      "outputs": [
        {
          "internalType": "uint256",
          "name": "",
          "type": "uint256"
        }
      ],
      "stateMutability": "view",
      "type": "function"
    },
    {
      "inputs": [],
      "name": "epochRewards",
      "outputs": [
        {
          "internalType": "uint256",
          "name": "",
          "type": "uint256"
        }
      ],
      "stateMutability": "view",
      "type": "function"
    },
    {
      "inputs": [],
      "name": "epochRewardsPercentage",
      "outputs": [
        {
          "internalType": "uint256",
          "name": "",
          "type": "uint256"
        }
      ],
      "stateMutability": "view",
      "type": "function"
    },
    {
      "inputs": [],
      "name": "epochStartTime",
      "outputs": [
        {
          "internalType": "uint256",
          "name": "",
          "type": "uint256"
        }
      ],
      "stateMutability": "view",
      "type": "function"
    },
    {
      "inputs": [
        {
          "internalType": "uint256",
          "name": "",
          "type": "uint256"
        }
      ],
      "name": "factionArtifactsBalance",
      "outputs": [
        {
          "internalType": "uint256",
          "name": "",
          "type": "uint256"
        }
      ],
      "stateMutability": "view",
      "type": "function"
    },
    {
      "inputs": [
        {
          "internalType": "uint256",
          "name": "_faction",
          "type": "uint256"
        }
      ],
      "name": "getFactionArtifactsBalance",
      "outputs": [
        {
          "internalType": "uint256",
          "name": "",
          "type": "uint256"
        }
      ],
      "stateMutability": "view",
      "type": "function"
    },
    {
      "inputs": [],
      "name": "getMothoraGame",
      "outputs": [
        {
          "internalType": "address",
          "name": "",
          "type": "address"
        }
      ],
      "stateMutability": "view",
      "type": "function"
    },
    {
      "inputs": [
        {
          "internalType": "address",
          "name": "_player",
          "type": "address"
        }
      ],
      "name": "getPlayerArtifactsBalance",
      "outputs": [
        {
          "internalType": "uint256",
          "name": "",
          "type": "uint256"
        }
      ],
      "stateMutability": "view",
      "type": "function"
    },
    {
      "inputs": [
        {
          "internalType": "address",
          "name": "_player",
          "type": "address"
        }
      ],
      "name": "getTotalBalance",
      "outputs": [
        {
          "internalType": "uint256",
          "name": "balance",
          "type": "uint256"
        },
        {
          "internalType": "uint256",
          "name": "stakedBalance",
          "type": "uint256"
        },
        {
          "internalType": "uint256",
          "name": "pendingRewards",
          "type": "uint256"
        }
      ],
      "stateMutability": "view",
      "type": "function"
    },
    {
      "inputs": [],
      "name": "lastDistributionTime",
      "outputs": [
        {
          "internalType": "uint256",
          "name": "",
          "type": "uint256"
        }
      ],
      "stateMutability": "view",
      "type": "function"
    },
    {
      "inputs": [
        {
          "internalType": "address",
          "name": "",
          "type": "address"
        }
      ],
      "name": "lastUpdate",
      "outputs": [
        {
          "internalType": "uint256",
          "name": "",
          "type": "uint256"
        }
      ],
      "stateMutability": "view",
      "type": "function"
    },
    {
      "inputs": [
        {
          "internalType": "address",
          "name": "",
          "type": "address"
        },
        {
          "internalType": "address",
          "name": "",
          "type": "address"
        },
        {
          "internalType": "uint256[]",
          "name": "",
          "type": "uint256[]"
        },
        {
          "internalType": "uint256[]",
          "name": "",
          "type": "uint256[]"
        },
        {
          "internalType": "bytes",
          "name": "",
          "type": "bytes"
        }
      ],
      "name": "onERC1155BatchReceived",
      "outputs": [
        {
          "internalType": "bytes4",
          "name": "",
          "type": "bytes4"
        }
      ],
      "stateMutability": "nonpayable",
      "type": "function"
    },
    {
      "inputs": [
        {
          "internalType": "address",
          "name": "",
          "type": "address"
        },
        {
          "internalType": "address",
          "name": "",
          "type": "address"
        },
        {
          "internalType": "uint256",
          "name": "",
          "type": "uint256"
        },
        {
          "internalType": "uint256",
          "name": "",
          "type": "uint256"
        },
        {
          "internalType": "bytes",
          "name": "",
          "type": "bytes"
        }
      ],
      "name": "onERC1155Received",
      "outputs": [
        {
          "internalType": "bytes4",
          "name": "",
          "type": "bytes4"
        }
      ],
      "stateMutability": "nonpayable",
      "type": "function"
    },
    {
      "inputs": [],
      "name": "owner",
      "outputs": [
        {
          "internalType": "address",
          "name": "",
          "type": "address"
        }
      ],
      "stateMutability": "view",
      "type": "function"
    },
    {
      "inputs": [
        {
          "internalType": "uint256",
          "name": "",
          "type": "uint256"
        }
      ],
      "name": "playerAddresses",
      "outputs": [
        {
          "internalType": "address",
          "name": "",
          "type": "address"
        }
      ],
      "stateMutability": "view",
      "type": "function"
    },
    {
      "inputs": [],
      "name": "playerId",
      "outputs": [
        {
          "internalType": "uint256",
          "name": "",
          "type": "uint256"
        }
      ],
      "stateMutability": "view",
      "type": "function"
    },
    {
      "inputs": [
        {
          "internalType": "address",
          "name": "",
          "type": "address"
        }
      ],
      "name": "playerIds",
      "outputs": [
        {
          "internalType": "uint256",
          "name": "",
          "type": "uint256"
        }
      ],
      "stateMutability": "view",
      "type": "function"
    },
    {
      "inputs": [
        {
          "internalType": "address",
          "name": "",
          "type": "address"
        }
      ],
      "name": "playerStakedArtifactsBalance",
      "outputs": [
        {
          "internalType": "uint256",
          "name": "",
          "type": "uint256"
        }
      ],
      "stateMutability": "view",
      "type": "function"
    },
    {
      "inputs": [],
      "name": "renounceOwnership",
      "outputs": [],
      "stateMutability": "nonpayable",
      "type": "function"
    },
    {
      "inputs": [
        {
          "internalType": "address",
          "name": "mothoraGameContractAddress",
          "type": "address"
        }
      ],
      "name": "setMothoraGame",
      "outputs": [],
      "stateMutability": "nonpayable",
      "type": "function"
    },
    {
      "inputs": [
        {
          "internalType": "uint256",
          "name": "amount",
          "type": "uint256"
        }
      ],
      "name": "stakeArtifacts",
      "outputs": [],
      "stateMutability": "nonpayable",
      "type": "function"
    },
    {
      "inputs": [
        {
          "internalType": "uint256",
          "name": "amount",
          "type": "uint256"
        }
      ],
      "name": "stakeTokens",
      "outputs": [],
      "stateMutability": "nonpayable",
      "type": "function"
    },
    {
      "inputs": [
        {
          "internalType": "address",
          "name": "",
          "type": "address"
        }
      ],
      "name": "stakedDuration",
      "outputs": [
        {
          "internalType": "uint256",
          "name": "",
          "type": "uint256"
        }
      ],
      "stateMutability": "view",
      "type": "function"
    },
    {
      "inputs": [
        {
          "internalType": "address",
          "name": "",
          "type": "address"
        }
      ],
      "name": "stakedESSBalance",
      "outputs": [
        {
          "internalType": "uint256",
          "name": "",
          "type": "uint256"
        }
      ],
      "stateMutability": "view",
      "type": "function"
    },
    {
      "inputs": [
        {
          "internalType": "bytes4",
          "name": "interfaceId",
          "type": "bytes4"
        }
      ],
      "name": "supportsInterface",
      "outputs": [
        {
          "internalType": "bool",
          "name": "",
          "type": "bool"
        }
      ],
      "stateMutability": "view",
      "type": "function"
    },
    {
      "inputs": [
        {
          "internalType": "address",
          "name": "",
          "type": "address"
        }
      ],
      "name": "timeTier",
      "outputs": [
        {
          "internalType": "uint256",
          "name": "",
          "type": "uint256"
        }
      ],
      "stateMutability": "view",
      "type": "function"
    },
    {
      "inputs": [],
      "name": "totalArtifactsContributed",
      "outputs": [
        {
          "internalType": "uint256",
          "name": "",
          "type": "uint256"
        }
      ],
      "stateMutability": "view",
      "type": "function"
    },
    {
      "inputs": [],
      "name": "totalStakedBalance",
      "outputs": [
        {
          "internalType": "uint256",
          "name": "",
          "type": "uint256"
        }
      ],
      "stateMutability": "view",
      "type": "function"
    },
    {
      "inputs": [
        {
          "internalType": "address",
          "name": "newOwner",
          "type": "address"
        }
      ],
      "name": "transferOwnership",
      "outputs": [],
      "stateMutability": "nonpayable",
      "type": "function"
    },
    {
      "inputs": [
        {
          "internalType": "uint256",
          "name": "amount",
          "type": "uint256"
        }
      ],
      "name": "unstakeArtifacts",
      "outputs": [],
      "stateMutability": "nonpayable",
      "type": "function"
    },
    {
      "inputs": [
        {
          "internalType": "uint256",
          "name": "amount",
          "type": "uint256"
        }
      ],
      "name": "unstakeTokens",
      "outputs": [],
      "stateMutability": "nonpayable",
      "type": "function"
    }
  ],
  "transactionHash": "0xe57912de81d3e06b6e60430ec12a03c9676378b932e7b0e09d1ecb90de280d25",
  "args": [
    "0xD0a4316a9e1E197b41Cf6530A1bbAd30A6cCc6B7",
    300000,
    10
  ],
  "numDeployments": 2,
  "solcInputHash": "84ad2364189b996b3b7996b5bcb9ca1d",
  "bytecode": "0x60806040523480156200001157600080fd5b5060405162002a8638038062002a868339810160408190526200003491620000c4565b6200003f3362000074565b60018055600a80546001600160a01b0319166001600160a01b039490941693909317909255600f556010554260115562000109565b600080546001600160a01b038381166001600160a01b0319831681178455604051919092169283917f8be0079c531659141344cd1fd0a4f28419497f9722a3daafe3b4186f6b6457e09190a35050565b600080600060608486031215620000da57600080fd5b83516001600160a01b0381168114620000f257600080fd5b602085015160409095015190969495509392505050565b61296d80620001196000396000f3fe608060405234801561001057600080fd5b50600436106102115760003560e01c806384e9366311610125578063cb03fb1e116100ad578063d7f81f361161007c578063d7f81f36146104eb578063eaaa1b1d146104fe578063f23a6e611461051e578063f2fde38b1461053d578063f60ca6411461055057600080fd5b8063cb03fb1e1461046c578063d0ca5f6c1461048c578063d36ec0611461049d578063d3d38193146104bd57600080fd5b806391a38bea116100f457806391a38bea146103dc578063aa1910cb146103e5578063ba2a5f69146103f8578063bc197c8114610421578063c62dc73a1461045957600080fd5b806384e9366314610382578063862d91a01461038b57806388e1e939146103ab5780638da5cb5b146103cb57600080fd5b8063608e4dd0116101a8578063715018a611610177578063715018a61461034257806372cf17731461034a5780637547c7a31461035d57806375b1735014610370578063773f7a3a1461037957600080fd5b8063608e4dd0146102fe578063696786d3146103115780636f4a2cd014610331578063713c0e1a1461033957600080fd5b806315c6aee2116101e457806315c6aee21461028a57806322ec141e146102b557806344cfedbd146102d55780634ff0876a146102f557600080fd5b806301ffc9a71461021657806302ee27001461023e5780630620eedc1461025357806306d3965e1461026a575b600080fd5b610229610224366004612302565b610559565b60405190151581526020015b60405180910390f35b61025161024c366004612341565b610590565b005b61025c600b5481565b604051908152602001610235565b61025c610278366004612341565b60086020526000908152604090205481565b61029d61029836600461235e565b6105e2565b6040516001600160a01b039091168152602001610235565b61025c6102c336600461235e565b60096020526000908152604090205481565b61025c6102e3366004612341565b60056020526000908152604090205481565b61025c60105481565b61025161030c36600461235e565b61060c565b61025c61031f366004612341565b60076020526000908152604090205481565b61025161086b565b61025c60135481565b61025161106c565b610251610358366004612385565b611080565b61025161036b36600461235e565b61118f565b61025c600e5481565b61025c600c5481565b61025c600f5481565b61025c61039936600461235e565b60009081526009602052604090205490565b61025c6103b9366004612341565b60026020526000908152604090205481565b6000546001600160a01b031661029d565b61025c600d5481565b6102516103f336600461235e565b6113d5565b61025c610406366004612341565b6001600160a01b031660009081526008602052604090205490565b61044061042f3660046124ce565b63bc197c8160e01b95945050505050565b6040516001600160e01b03199091168152602001610235565b61025161046736600461235e565b61170c565b61025c61047a366004612341565b60066020526000908152604090205481565b600a546001600160a01b031661029d565b61025c6104ab366004612341565b60046020526000908152604090205481565b6104d06104cb366004612341565b611b58565b60408051938452602084019290925290820152606001610235565b61025c6104f936600461257c565b611c72565b61025c61050c366004612341565b60036020526000908152604090205481565b61044061052c3660046125a8565b63f23a6e6160e01b95945050505050565b61025161054b366004612341565b611cc0565b61025c60115481565b60006001600160e01b03198216630271189760e51b148061058a57506301ffc9a760e01b6001600160e01b03198316145b92915050565b610598611d39565b600a80546001600160a01b0319166001600160a01b0383169081179091556040517fb470247bc93cda00b99087355b926ca47d43fc2d926a1fc9dda5c26af915d06d90600090a250565b601281815481106105f257600080fd5b6000918252602090912001546001600160a01b0316905081565b6002600154036106375760405162461bcd60e51b815260040161062e90612611565b60405180910390fd5b6002600155600a54604051631895c2d560e31b81523360048201526000916001600160a01b03169063c4ae16a890602401602060405180830381865afa158015610685573d6000803e3d6000fd5b505050506040513d601f19601f820116820180604052508101906106a99190612648565b9050806000036106cb5760405162461bcd60e51b815260040161062e90612661565b600082116106eb5760405162461bcd60e51b815260040161062e90612691565b3360009081526002602052604090205461073d5760405162461bcd60e51b815260206004820152601360248201527205354414b45445f42414c414e43455f49535f3606c1b604482015260640161062e565b336000908152600260205260409020548211156107985760405162461bcd60e51b815260206004820152601960248201527824a72b20a624a22faaa729aa20a5a2afa7a822a920aa24a7a760391b604482015260640161062e565b33600090815260026020526040812080548492906107b79084906126cc565b9250508190555081600b60008282546107d091906126cc565b925050819055506108633383600a60009054906101000a90046001600160a01b03166001600160a01b03166306274eac6040518163ffffffff1660e01b8152600401602060405180830381865afa15801561082f573d6000803e3d6000fd5b505050506040513d601f19601f8201168201806040525081019061085391906126df565b6001600160a01b03169190611d93565b505060018055565b610873611d39565b6000600b54116108b85760405162461bcd60e51b815260206004820152601060248201526f1393d7d513d2d15394d7d4d51052d15160821b604482015260640161062e565b6000601054601154426108cb91906126cc565b6108d591906126fc565b6010546108e2919061271e565b6011546108ef919061273d565b905080600e54106109425760405162461bcd60e51b815260206004820152601d60248201527f444953545249425554494f4e5f414c52454144595f48415050454e4544000000604482015260640161062e565b61096d600f54600b54610955919061271e565b6109619061025861271e565b63bbf81e006000611c72565b600c556012805460408051602080840282018101909252828152600093909290918301828280156109c757602002820191906000526020600020905b81546001600160a01b031681526001909101906020018083116109a9575b5050601354600c54949550939250600091508190508080808060015b888111610ace5760006002818c6109fb6001866126cc565b81518110610a0b57610a0b612750565b60200260200101516001600160a01b03166001600160a01b03168152602001908152602001600020541115610ac657610a668a610a496001846126cc565b81518110610a5957610a59612750565b6020026020010151611df6565b600260008c610a766001866126cc565b81518110610a8657610a86612750565b60200260200101516001600160a01b03166001600160a01b0316815260200190815260200160002054610ab9919061271e565b610ac3908861273d565b96505b6001016109e3565b50600d546003600081905260096020527fc575c31fea594a6eb97c8e9d3f9caee4c16218c6ef37e923234c0fe9014a61e754600a54604051633093550960e01b81526004810193909352929750916001600160a01b031690633093550990602401602060405180830381865afa158015610b4c573d6000803e3d6000fd5b505050506040513d601f19601f82011682018060405250810190610b709190612648565b610b7a919061271e565b6002600081905260096020527f6cde3cea4b3a3fb2488b2808bae7556f4a405e50f65e1794383bc026131b13c354600a54604051633093550960e01b815291926001600160a01b0390911691633093550991610bdc9160040190815260200190565b602060405180830381865afa158015610bf9573d6000803e3d6000fd5b505050506040513d601f19601f82011682018060405250810190610c1d9190612648565b610c27919061271e565b6001600081905260096020527f92e85d02570a8092d09a6e3a57665bc3815a2699a4074001bf1ccabf660f5a3654600a54604051633093550960e01b815291926001600160a01b0390911691633093550991610c899160040190815260200190565b602060405180830381865afa158015610ca6573d6000803e3d6000fd5b505050506040513d601f19601f82011682018060405250810190610cca9190612648565b610cd4919061271e565b610cde919061273d565b610ce8919061273d565b93508415610f4757600060015b6013548111610f4057610d0d8b610a496001846126cc565b600260006012610d1e6001866126cc565b81548110610d2e57610d2e612750565b60009182526020808320909101546001600160a01b03168352820192909252604001902054610d5d919061271e565b9450600860008c610d6f6001856126cc565b81518110610d7f57610d7f612750565b6020908102919091018101516001600160a01b0390811683529082019290925260400160002054600a549095501663915109798c610dbe6001856126cc565b81518110610dce57610dce612750565b60200260200101516040518263ffffffff1660e01b8152600401610e0191906001600160a01b0391909116815260200190565b602060405180830381865afa158015610e1e573d6000803e3d6000fd5b505050506040513d601f19601f82011682018060405250810190610e429190612648565b60008181526009602052604090205493509150610e8089610e6485600561271e565b610e6e919061271e565b610e7988606461271e565b6000611c72565b610ea48a610e8f87601961271e565b610e99919061271e565b610e798a606461271e565b610ec88b610eb389604661271e565b610ebd919061271e565b610e798c606461271e565b610ed2919061273d565b610edc919061273d565b600360008d610eec6001866126cc565b81518110610efc57610efc612750565b60200260200101516001600160a01b03166001600160a01b031681526020019081526020016000206000828254610f33919061273d565b9091555050600101610cf5565b505061105c565b60015b601354811161105a57610f8d6012610f636001846126cc565b81548110610f7357610f73612750565b6000918252602090912001546001600160a01b0316611df6565b600260006012610f9e6001866126cc565b81548110610fae57610fae612750565b60009182526020808320909101546001600160a01b03168352820192909252604001902054610fdd919061271e565b9350610ff8600c5485610ff0919061271e565b886000611c72565b6003600060126110096001866126cc565b8154811061101957611019612750565b60009182526020808320909101546001600160a01b031683528201929092526040018120805490919061104d90849061273d565b9091555050600101610f4a565b505b505042600e555050505050505050565b611074611d39565b61107e6000611f4c565b565b600a54604051631895c2d560e31b81523360048201526000916001600160a01b03169063c4ae16a890602401602060405180830381865afa1580156110c9573d6000803e3d6000fd5b505050506040513d601f19601f820116820180604052508101906110ed9190612648565b90508060000361110f5760405162461bcd60e51b815260040161062e90612661565b336000908152600360205260408120805491905582156111375761113281611f9c565b505050565b6111323382600a60009054906101000a90046001600160a01b03166001600160a01b03166306274eac6040518163ffffffff1660e01b8152600401602060405180830381865afa15801561082f573d6000803e3d6000fd5b6002600154036111b15760405162461bcd60e51b815260040161062e90612611565b6002600155600a54604051631895c2d560e31b81523360048201526000916001600160a01b03169063c4ae16a890602401602060405180830381865afa1580156111ff573d6000803e3d6000fd5b505050506040513d601f19601f820116820180604052508101906112239190612648565b600a54604051630f45db9160e01b81523360048201529192506000916001600160a01b0390911690630f45db9190602401602060405180830381865afa158015611271573d6000803e3d6000fd5b505050506040513d601f19601f820116820180604052508101906112959190612766565b905081158015906112a4575080155b6112e55760405162461bcd60e51b81526020600482015260126024820152714143434f554e545f4e4f545f41435449564560701b604482015260640161062e565b600083116113355760405162461bcd60e51b815260206004820152601860248201527f414d4f554e545f4e4f545f4849474845525f5448414e5f300000000000000000604482015260640161062e565b61133e83611f9c565b6113cc333085600a60009054906101000a90046001600160a01b03166001600160a01b03166306274eac6040518163ffffffff1660e01b8152600401602060405180830381865afa158015611397573d6000803e3d6000fd5b505050506040513d601f19601f820116820180604052508101906113bb91906126df565b6001600160a01b03169291906120de565b50506001805550565b6002600154036113f75760405162461bcd60e51b815260040161062e90612611565b6002600155600a54604051631895c2d560e31b81523360048201526000916001600160a01b03169063c4ae16a890602401602060405180830381865afa158015611445573d6000803e3d6000fd5b505050506040513d601f19601f820116820180604052508101906114699190612648565b90508060000361148b5760405162461bcd60e51b815260040161062e90612661565b600082116114ab5760405162461bcd60e51b815260040161062e90612691565b336000908152600860205260409020546114fd5760405162461bcd60e51b815260206004820152601360248201527205354414b45445f42414c414e43455f49535f3606c1b604482015260640161062e565b336000908152600860205260409020548211156115585760405162461bcd60e51b815260206004820152601960248201527824a72b20a624a22faaa729aa20a5a2afa7a822a920aa24a7a760391b604482015260640161062e565b33600090815260086020526040812080548492906115779084906126cc565b9091555050600a54604051639151097960e01b81523360048201526000916001600160a01b031690639151097990602401602060405180830381865afa1580156115c5573d6000803e3d6000fd5b505050506040513d601f19601f820116820180604052508101906115e99190612648565b90508260096000838152602001908152602001600020600082825461160e91906126cc565b9250508190555082600d600082825461162791906126cc565b9091555050600a5460408051631dcf023d60e11b815290516000926001600160a01b031691633b9e047a9160048083019260209291908290030181865afa158015611676573d6000803e3d6000fd5b505050506040513d601f19601f8201168201806040525081019061169a91906126df565b604051637921219560e11b81529091506001600160a01b0382169063f242432a906116d090309033906000908a90600401612783565b600060405180830381600087803b1580156116ea57600080fd5b505af11580156116fe573d6000803e3d6000fd5b505060018055505050505050565b60026001540361172e5760405162461bcd60e51b815260040161062e90612611565b6002600155600a54604051631895c2d560e31b81523360048201526000916001600160a01b03169063c4ae16a890602401602060405180830381865afa15801561177c573d6000803e3d6000fd5b505050506040513d601f19601f820116820180604052508101906117a09190612648565b600a54604051630f45db9160e01b81523360048201529192506000916001600160a01b0390911690630f45db9190602401602060405180830381865afa1580156117ee573d6000803e3d6000fd5b505050506040513d601f19601f820116820180604052508101906118129190612766565b90508115801590611821575080155b6118625760405162461bcd60e51b81526020600482015260126024820152714143434f554e545f4e4f545f41435449564560701b604482015260640161062e565b600083116118825760405162461bcd60e51b815260040161062e90612691565b600a5460408051631dcf023d60e11b815290516000926001600160a01b031691633b9e047a9160048083019260209291908290030181865afa1580156118cc573d6000803e3d6000fd5b505050506040513d601f19601f820116820180604052508101906118f091906126df565b905083816001600160a01b031662fdd58e33846001600160a01b03166347312a756040518163ffffffff1660e01b8152600401602060405180830381865afa158015611940573d6000803e3d6000fd5b505050506040513d601f19601f820116820180604052508101906119649190612648565b6040516001600160e01b031960e085901b1681526001600160a01b0390921660048301526024820152604401602060405180830381865afa1580156119ad573d6000803e3d6000fd5b505050506040513d601f19601f820116820180604052508101906119d19190612648565b1015611a145760405162461bcd60e51b81526020600482015260126024820152714e4f545f454e4f5547485f42414c414e434560701b604482015260640161062e565b3360009081526008602052604081208054869290611a3390849061273d565b9091555050600a54604051639151097960e01b81523360048201526000916001600160a01b031690639151097990602401602060405180830381865afa158015611a81573d6000803e3d6000fd5b505050506040513d601f19601f82011682018060405250810190611aa59190612648565b905084600960008381526020019081526020016000206000828254611aca919061273d565b9250508190555084600d6000828254611ae3919061273d565b9091555050604051637921219560e11b81526001600160a01b0383169063f242432a90611b1b90339030906000908b90600401612783565b600060405180830381600087803b158015611b3557600080fd5b505af1158015611b49573d6000803e3d6000fd5b50506001805550505050505050565b6000806000600a60009054906101000a90046001600160a01b03166001600160a01b03166306274eac6040518163ffffffff1660e01b8152600401602060405180830381865afa158015611bb0573d6000803e3d6000fd5b505050506040513d601f19601f82011682018060405250810190611bd491906126df565b6040516370a0823160e01b81526001600160a01b03868116600483015291909116906370a0823190602401602060405180830381865afa158015611c1c573d6000803e3d6000fd5b505050506040513d601f19601f82011682018060405250810190611c409190612648565b6001600160a01b0394909416600090815260026020908152604080832054600390925290912054949590949350915050565b6000600a83611c8284600161273d565b611c8d90600a61289f565b611c97908761271e565b611ca191906126fc565b611cac90600561273d565b611cb691906126fc565b90505b9392505050565b611cc8611d39565b6001600160a01b038116611d2d5760405162461bcd60e51b815260206004820152602660248201527f4f776e61626c653a206e6577206f776e657220697320746865207a65726f206160448201526564647265737360d01b606482015260840161062e565b611d3681611f4c565b50565b6000546001600160a01b0316331461107e5760405162461bcd60e51b815260206004820181905260248201527f4f776e61626c653a2063616c6c6572206973206e6f7420746865206f776e6572604482015260640161062e565b6040516001600160a01b03831660248201526044810182905261113290849063a9059cbb60e01b906064015b60408051601f198184030181529190526020810180516001600160e01b03166001600160e01b03199093169290921790915261211c565b6001600160a01b038116600090815260066020526040812054611e1990426126cc565b6001600160a01b03831660009081526005602052604081208054909190611e4190849061273d565b90915550506001600160a01b038216600090815260066020908152604080832042905560059091529020546102588111611e96576001600160a01b0383166000908152600760205260409020600a9055611f2f565b61025881118015611ea957506104b08111155b15611ecf576001600160a01b0383166000908152600760205260409020600d9055611f2f565b6104b081118015611ee25750610bb88111155b15611f08576001600160a01b038316600090815260076020526040902060109055611f2f565b610bb8811115611f2f576001600160a01b0383166000908152600760205260409020601490555b50506001600160a01b031660009081526007602052604090205490565b600080546001600160a01b038381166001600160a01b0319831681178455604051919092169283917f8be0079c531659141344cd1fd0a4f28419497f9722a3daafe3b4186f6b6457e09190a35050565b336000908152600260205260408120549081900361204e573360009081526004602052604081205490036120375760138054906000611fda836128ab565b9091555050601354336000818152600460205260408120929092556012805460018101825592527fbb8a6a4669ba250d26cd7a459eca9d215f8307e33aebe50379bc5a3617ec344490910180546001600160a01b03191690911790555b33600090815260066020526040902042905561209d565b3360009081526002602052604090205461206890826126fc565b3360009081526006602052604090205461208290426126cc565b61208c919061271e565b336000908152600560205260409020555b33600090815260026020526040812080548492906120bc90849061273d565b9250508190555081600b60008282546120d5919061273d565b90915550505050565b6040516001600160a01b03808516602483015283166044820152606481018290526121169085906323b872dd60e01b90608401611dbf565b50505050565b6000612171826040518060400160405280602081526020017f5361666545524332303a206c6f772d6c6576656c2063616c6c206661696c6564815250856001600160a01b03166121ee9092919063ffffffff16565b805190915015611132578080602001905181019061218f9190612766565b6111325760405162461bcd60e51b815260206004820152602a60248201527f5361666545524332303a204552433230206f7065726174696f6e20646964206e6044820152691bdd081cdd58d8d9595960b21b606482015260840161062e565b6060611cb68484600085856001600160a01b0385163b6122505760405162461bcd60e51b815260206004820152601d60248201527f416464726573733a2063616c6c20746f206e6f6e2d636f6e7472616374000000604482015260640161062e565b600080866001600160a01b0316858760405161226c91906128e8565b60006040518083038185875af1925050503d80600081146122a9576040519150601f19603f3d011682016040523d82523d6000602084013e6122ae565b606091505b50915091506122be8282866122c9565b979650505050505050565b606083156122d8575081611cb9565b8251156122e85782518084602001fd5b8160405162461bcd60e51b815260040161062e9190612904565b60006020828403121561231457600080fd5b81356001600160e01b031981168114611cb957600080fd5b6001600160a01b0381168114611d3657600080fd5b60006020828403121561235357600080fd5b8135611cb98161232c565b60006020828403121561237057600080fd5b5035919050565b8015158114611d3657600080fd5b60006020828403121561239757600080fd5b8135611cb981612377565b634e487b7160e01b600052604160045260246000fd5b604051601f8201601f1916810167ffffffffffffffff811182821017156123e1576123e16123a2565b604052919050565b600082601f8301126123fa57600080fd5b8135602067ffffffffffffffff821115612416576124166123a2565b8160051b6124258282016123b8565b928352848101820192828101908785111561243f57600080fd5b83870192505b848310156122be57823582529183019190830190612445565b600082601f83011261246f57600080fd5b813567ffffffffffffffff811115612489576124896123a2565b61249c601f8201601f19166020016123b8565b8181528460208386010111156124b157600080fd5b816020850160208301376000918101602001919091529392505050565b600080600080600060a086880312156124e657600080fd5b85356124f18161232c565b945060208601356125018161232c565b9350604086013567ffffffffffffffff8082111561251e57600080fd5b61252a89838a016123e9565b9450606088013591508082111561254057600080fd5b61254c89838a016123e9565b9350608088013591508082111561256257600080fd5b5061256f8882890161245e565b9150509295509295909350565b60008060006060848603121561259157600080fd5b505081359360208301359350604090920135919050565b600080600080600060a086880312156125c057600080fd5b85356125cb8161232c565b945060208601356125db8161232c565b93506040860135925060608601359150608086013567ffffffffffffffff81111561260557600080fd5b61256f8882890161245e565b6020808252601f908201527f5265656e7472616e637947756172643a207265656e7472616e742063616c6c00604082015260600190565b60006020828403121561265a57600080fd5b5051919050565b6020808252601690820152751050d0d3d5539517d113d154d7d393d517d1561254d560521b604082015260600190565b6020808252600b908201526a0414d4f554e545f49535f360ac1b604082015260600190565b634e487b7160e01b600052601160045260246000fd5b8181038181111561058a5761058a6126b6565b6000602082840312156126f157600080fd5b8151611cb98161232c565b60008261271957634e487b7160e01b600052601260045260246000fd5b500490565b6000816000190483118215151615612738576127386126b6565b500290565b8082018082111561058a5761058a6126b6565b634e487b7160e01b600052603260045260246000fd5b60006020828403121561277857600080fd5b8151611cb981612377565b6001600160a01b0394851681529290931660208301526040820152606081019190915260a06080820181905260009082015260c00190565b600181815b808511156127f65781600019048211156127dc576127dc6126b6565b808516156127e957918102915b93841c93908002906127c0565b509250929050565b60008261280d5750600161058a565b8161281a5750600061058a565b8160018114612830576002811461283a57612856565b600191505061058a565b60ff84111561284b5761284b6126b6565b50506001821b61058a565b5060208310610133831016604e8410600b8410161715612879575081810a61058a565b61288383836127bb565b8060001904821115612897576128976126b6565b029392505050565b6000611cb983836127fe565b6000600182016128bd576128bd6126b6565b5060010190565b60005b838110156128df5781810151838201526020016128c7565b50506000910152565b600082516128fa8184602087016128c4565b9190910192915050565b60208152600082518060208401526129238160408501602087016128c4565b601f01601f1916919091016040019291505056fea26469706673582212205128cc1efec7b2407a5275332f829c5a553e22c85c2725ad030b2614ffbd142b64736f6c63430008100033",
  "devdoc": {
    "kind": "dev",
    "methods": {
      "claimEpochRewards(bool)": {
        "details": "Claims the rewards of a given epoch. If autocompound is true it re-stakes the tokens harvested, otherwise withdraws them",
        "params": {
          "autocompound": "true or false*"
        }
      },
      "distributeRewards()": {
        "details": "Admin function to distribute rewards after a given epoch. It operates in a push basisGiven this operation mode it has serious limitations given the loops. A better implementation is to create a pull based system*"
      },
      "getFactionArtifactsBalance(uint256)": {
        "details": "Returns the current number of staked artifacts per faction",
        "returns": {
          "_0": "The number of staked artifacts*"
        }
      },
      "getMothoraGame()": {
        "details": "Returns the address of the Mothora Game Hub Contract",
        "returns": {
          "_0": "The Mothora Game address*"
        }
      },
      "getPlayerArtifactsBalance(address)": {
        "details": "Returns the current number of staked artifacts",
        "returns": {
          "_0": "The number of staked artifacts*"
        }
      },
      "getTotalBalance(address)": {
        "details": "Returns the players' balances*"
      },
      "owner()": {
        "details": "Returns the address of the current owner."
      },
      "renounceOwnership()": {
        "details": "Leaves the contract without owner. It will not be possible to call `onlyOwner` functions anymore. Can only be called by the current owner. NOTE: Renouncing ownership will leave the contract without an owner, thereby removing any functionality that is only available to the owner."
      },
      "setMothoraGame(address)": {
        "details": "Updates the address of the Mothora Game",
        "params": {
          "mothoraGameContractAddress": "The new Mothora Game address*"
        }
      },
      "stakeArtifacts(uint256)": {
        "details": "Stakes artifacts in the absorber, only active accounts can stake",
        "params": {
          "amount": "amount to be staked"
        }
      },
      "stakeTokens(uint256)": {
        "details": "Allows active accounts only to stake tokens",
        "params": {
          "amount": "amount to be staked"
        }
      },
      "supportsInterface(bytes4)": {
        "details": "See {IERC165-supportsInterface}."
      },
      "transferOwnership(address)": {
        "details": "Transfers ownership of the contract to a new account (`newOwner`). Can only be called by the current owner."
      },
      "unstakeArtifacts(uint256)": {
        "details": "Unstakes artifacts from the absorber. Any existing account can unstake",
        "params": {
          "amount": "amount to be unstaked"
        }
      },
      "unstakeTokens(uint256)": {
        "details": "Allows any existing account to unstake (including frozen accounts, which cannot stake anymore)",
        "params": {
          "amount": "amount to be staked"
        }
      }
    },
    "version": 1
  },
  "userdoc": {
    "kind": "user",
    "methods": {},
    "version": 1
  },
  "storageLayout": {
    "storage": [
      {
        "astId": 2156,
        "contract": "contracts/modules/EssenceAbsorber.sol:EssenceAbsorber",
        "label": "_owner",
        "offset": 0,
        "slot": "0",
        "type": "t_address"
      },
      {
        "astId": 2272,
        "contract": "contracts/modules/EssenceAbsorber.sol:EssenceAbsorber",
        "label": "_status",
        "offset": 0,
        "slot": "1",
        "type": "t_uint256"
      },
      {
        "astId": 7340,
        "contract": "contracts/modules/EssenceAbsorber.sol:EssenceAbsorber",
        "label": "stakedESSBalance",
        "offset": 0,
        "slot": "2",
        "type": "t_mapping(t_address,t_uint256)"
      },
      {
        "astId": 7344,
        "contract": "contracts/modules/EssenceAbsorber.sol:EssenceAbsorber",
        "label": "RewardsBalance",
        "offset": 0,
        "slot": "3",
        "type": "t_mapping(t_address,t_uint256)"
      },
      {
        "astId": 7348,
        "contract": "contracts/modules/EssenceAbsorber.sol:EssenceAbsorber",
        "label": "playerIds",
        "offset": 0,
        "slot": "4",
        "type": "t_mapping(t_address,t_uint256)"
      },
      {
        "astId": 7352,
        "contract": "contracts/modules/EssenceAbsorber.sol:EssenceAbsorber",
        "label": "stakedDuration",
        "offset": 0,
        "slot": "5",
        "type": "t_mapping(t_address,t_uint256)"
      },
      {
        "astId": 7356,
        "contract": "contracts/modules/EssenceAbsorber.sol:EssenceAbsorber",
        "label": "lastUpdate",
        "offset": 0,
        "slot": "6",
        "type": "t_mapping(t_address,t_uint256)"
      },
      {
        "astId": 7360,
        "contract": "contracts/modules/EssenceAbsorber.sol:EssenceAbsorber",
        "label": "timeTier",
        "offset": 0,
        "slot": "7",
        "type": "t_mapping(t_address,t_uint256)"
      },
      {
        "astId": 7364,
        "contract": "contracts/modules/EssenceAbsorber.sol:EssenceAbsorber",
        "label": "playerStakedArtifactsBalance",
        "offset": 0,
        "slot": "8",
        "type": "t_mapping(t_address,t_uint256)"
      },
      {
        "astId": 7368,
        "contract": "contracts/modules/EssenceAbsorber.sol:EssenceAbsorber",
        "label": "factionArtifactsBalance",
        "offset": 0,
        "slot": "9",
        "type": "t_mapping(t_uint256,t_uint256)"
      },
      {
        "astId": 7371,
        "contract": "contracts/modules/EssenceAbsorber.sol:EssenceAbsorber",
        "label": "mothoraGameContract",
        "offset": 0,
        "slot": "10",
        "type": "t_contract(MothoraGame)6109"
      },
      {
        "astId": 7373,
        "contract": "contracts/modules/EssenceAbsorber.sol:EssenceAbsorber",
        "label": "totalStakedBalance",
        "offset": 0,
        "slot": "11",
        "type": "t_uint256"
      },
      {
        "astId": 7375,
        "contract": "contracts/modules/EssenceAbsorber.sol:EssenceAbsorber",
        "label": "epochRewards",
        "offset": 0,
        "slot": "12",
        "type": "t_uint256"
      },
      {
        "astId": 7377,
        "contract": "contracts/modules/EssenceAbsorber.sol:EssenceAbsorber",
        "label": "totalArtifactsContributed",
        "offset": 0,
        "slot": "13",
        "type": "t_uint256"
      },
      {
        "astId": 7379,
        "contract": "contracts/modules/EssenceAbsorber.sol:EssenceAbsorber",
        "label": "lastDistributionTime",
        "offset": 0,
        "slot": "14",
        "type": "t_uint256"
      },
      {
        "astId": 7381,
        "contract": "contracts/modules/EssenceAbsorber.sol:EssenceAbsorber",
        "label": "epochRewardsPercentage",
        "offset": 0,
        "slot": "15",
        "type": "t_uint256"
      },
      {
        "astId": 7383,
        "contract": "contracts/modules/EssenceAbsorber.sol:EssenceAbsorber",
        "label": "epochDuration",
        "offset": 0,
        "slot": "16",
        "type": "t_uint256"
      },
      {
        "astId": 7385,
        "contract": "contracts/modules/EssenceAbsorber.sol:EssenceAbsorber",
        "label": "epochStartTime",
        "offset": 0,
        "slot": "17",
        "type": "t_uint256"
      },
      {
        "astId": 7388,
        "contract": "contracts/modules/EssenceAbsorber.sol:EssenceAbsorber",
        "label": "playerAddresses",
        "offset": 0,
        "slot": "18",
        "type": "t_array(t_address)dyn_storage"
      },
      {
        "astId": 7390,
        "contract": "contracts/modules/EssenceAbsorber.sol:EssenceAbsorber",
        "label": "playerId",
        "offset": 0,
        "slot": "19",
        "type": "t_uint256"
      }
    ],
    "types": {
      "t_address": {
        "encoding": "inplace",
        "label": "address",
        "numberOfBytes": "20"
      },
      "t_array(t_address)dyn_storage": {
        "base": "t_address",
        "encoding": "dynamic_array",
        "label": "address[]",
        "numberOfBytes": "32"
      },
      "t_contract(MothoraGame)6109": {
        "encoding": "inplace",
        "label": "contract MothoraGame",
        "numberOfBytes": "20"
      },
      "t_mapping(t_address,t_uint256)": {
        "encoding": "mapping",
        "key": "t_address",
        "label": "mapping(address => uint256)",
        "numberOfBytes": "32",
        "value": "t_uint256"
      },
      "t_mapping(t_uint256,t_uint256)": {
        "encoding": "mapping",
        "key": "t_uint256",
        "label": "mapping(uint256 => uint256)",
        "numberOfBytes": "32",
        "value": "t_uint256"
      },
      "t_uint256": {
        "encoding": "inplace",
        "label": "uint256",
        "numberOfBytes": "32"
      }
    }
  }
}