{
  "address": "0xe7b371386191555b77bc6C9e4AAa325D5e1214fb",
  "abi": [
    {
      "anonymous": false,
      "inputs": [
        {
          "indexed": true,
          "internalType": "address",
          "name": "player",
          "type": "address"
        },
        {
          "indexed": false,
          "internalType": "uint256",
          "name": "id",
          "type": "uint256"
        }
      ],
      "name": "AccountCreated",
      "type": "event"
    },
    {
      "anonymous": false,
      "inputs": [
        {
          "indexed": true,
          "internalType": "address",
          "name": "player",
          "type": "address"
        },
        {
          "indexed": false,
          "internalType": "bool",
          "name": "freezeStatus",
          "type": "bool"
        }
      ],
      "name": "AccountStatusChanged",
      "type": "event"
    },
    {
      "anonymous": false,
      "inputs": [
        {
          "indexed": true,
          "internalType": "address",
          "name": "arenaModule",
          "type": "address"
        }
      ],
      "name": "ArenaModuleUpdated",
      "type": "event"
    },
    {
      "anonymous": false,
      "inputs": [
        {
          "indexed": true,
          "internalType": "address",
          "name": "artifacts",
          "type": "address"
        }
      ],
      "name": "ArtifactsModuleUpdated",
      "type": "event"
    },
    {
      "anonymous": false,
      "inputs": [
        {
          "indexed": true,
          "internalType": "address",
          "name": "cosmetics",
          "type": "address"
        }
      ],
      "name": "CosmeticsModuleUpdated",
      "type": "event"
    },
    {
      "anonymous": false,
      "inputs": [
        {
          "indexed": true,
          "internalType": "address",
          "name": "craftingModule",
          "type": "address"
        }
      ],
      "name": "CraftingModuleUpdated",
      "type": "event"
    },
    {
      "anonymous": false,
      "inputs": [
        {
          "indexed": true,
          "internalType": "address",
          "name": "essenceAbsorber",
          "type": "address"
        }
      ],
      "name": "EssenceAbsorberUpdated",
      "type": "event"
    },
    {
      "anonymous": false,
      "inputs": [
        {
          "indexed": true,
          "internalType": "address",
          "name": "essenceField",
          "type": "address"
        }
      ],
      "name": "EssenceFieldUpdated",
      "type": "event"
    },
    {
      "anonymous": false,
      "inputs": [
        {
          "indexed": true,
          "internalType": "address",
          "name": "essence",
          "type": "address"
        }
      ],
      "name": "EssenceUpdated",
      "type": "event"
    },
    {
      "anonymous": false,
      "inputs": [
        {
          "indexed": false,
          "internalType": "uint8",
          "name": "version",
          "type": "uint8"
        }
      ],
      "name": "Initialized",
      "type": "event"
    },
    {
      "anonymous": false,
      "inputs": [
        {
          "indexed": true,
          "internalType": "bytes32",
          "name": "role",
          "type": "bytes32"
        },
        {
          "indexed": true,
          "internalType": "bytes32",
          "name": "previousAdminRole",
          "type": "bytes32"
        },
        {
          "indexed": true,
          "internalType": "bytes32",
          "name": "newAdminRole",
          "type": "bytes32"
        }
      ],
      "name": "RoleAdminChanged",
      "type": "event"
    },
    {
      "anonymous": false,
      "inputs": [
        {
          "indexed": true,
          "internalType": "bytes32",
          "name": "role",
          "type": "bytes32"
        },
        {
          "indexed": true,
          "internalType": "address",
          "name": "account",
          "type": "address"
        },
        {
          "indexed": true,
          "internalType": "address",
          "name": "sender",
          "type": "address"
        }
      ],
      "name": "RoleGranted",
      "type": "event"
    },
    {
      "anonymous": false,
      "inputs": [
        {
          "indexed": true,
          "internalType": "bytes32",
          "name": "role",
          "type": "bytes32"
        },
        {
          "indexed": true,
          "internalType": "address",
          "name": "account",
          "type": "address"
        },
        {
          "indexed": true,
          "internalType": "address",
          "name": "sender",
          "type": "address"
        }
      ],
      "name": "RoleRevoked",
      "type": "event"
    },
    {
      "inputs": [],
      "name": "DEFAULT_ADMIN_ROLE",
      "outputs": [
        {
          "internalType": "bytes32",
          "name": "",
          "type": "bytes32"
        }
      ],
      "stateMutability": "view",
      "type": "function"
    },
    {
      "inputs": [],
      "name": "MOTHORA_GAME_MASTER",
      "outputs": [
        {
          "internalType": "bytes32",
          "name": "",
          "type": "bytes32"
        }
      ],
      "stateMutability": "view",
      "type": "function"
    },
    {
      "inputs": [],
      "name": "accountsCounter",
      "outputs": [
        {
          "internalType": "uint256",
          "name": "_value",
          "type": "uint256"
        }
      ],
      "stateMutability": "view",
      "type": "function"
    },
    {
      "inputs": [
        {
          "internalType": "address",
          "name": "player",
          "type": "address"
        },
        {
          "internalType": "bool",
          "name": "freezeStatus",
          "type": "bool"
        }
      ],
      "name": "changeFreezeStatus",
      "outputs": [],
      "stateMutability": "nonpayable",
      "type": "function"
    },
    {
      "inputs": [
        {
          "internalType": "uint256",
          "name": "faction",
          "type": "uint256"
        }
      ],
      "name": "createAccount",
      "outputs": [],
      "stateMutability": "nonpayable",
      "type": "function"
    },
    {
      "inputs": [
        {
          "internalType": "uint256",
          "name": "newFaction",
          "type": "uint256"
        }
      ],
      "name": "defect",
      "outputs": [],
      "stateMutability": "nonpayable",
      "type": "function"
    },
    {
      "inputs": [
        {
          "internalType": "bytes32",
          "name": "id",
          "type": "bytes32"
        }
      ],
      "name": "getAddress",
      "outputs": [
        {
          "internalType": "address",
          "name": "",
          "type": "address"
        }
      ],
      "stateMutability": "view",
      "type": "function"
    },
    {
      "inputs": [],
      "name": "getAllActivePlayers",
      "outputs": [
        {
          "internalType": "address[]",
          "name": "",
          "type": "address[]"
        }
      ],
      "stateMutability": "view",
      "type": "function"
    },
    {
      "inputs": [],
      "name": "getArena",
      "outputs": [
        {
          "internalType": "address",
          "name": "",
          "type": "address"
        }
      ],
      "stateMutability": "view",
      "type": "function"
    },
    {
      "inputs": [],
      "name": "getArtifacts",
      "outputs": [
        {
          "internalType": "address",
          "name": "",
          "type": "address"
        }
      ],
      "stateMutability": "view",
      "type": "function"
    },
    {
      "inputs": [],
      "name": "getCosmetics",
      "outputs": [
        {
          "internalType": "address",
          "name": "",
          "type": "address"
        }
      ],
      "stateMutability": "view",
      "type": "function"
    },
    {
      "inputs": [],
      "name": "getCrafting",
      "outputs": [
        {
          "internalType": "address",
          "name": "",
          "type": "address"
        }
      ],
      "stateMutability": "view",
      "type": "function"
    },
    {
      "inputs": [],
      "name": "getEssence",
      "outputs": [
        {
          "internalType": "address",
          "name": "",
          "type": "address"
        }
      ],
      "stateMutability": "view",
      "type": "function"
    },
    {
      "inputs": [],
      "name": "getEssenceAbsorber",
      "outputs": [
        {
          "internalType": "address",
          "name": "",
          "type": "address"
        }
      ],
      "stateMutability": "view",
      "type": "function"
    },
    {
      "inputs": [],
      "name": "getEssenceField",
      "outputs": [
        {
          "internalType": "address",
          "name": "",
          "type": "address"
        }
      ],
      "stateMutability": "view",
      "type": "function"
    },
    {
      "inputs": [
        {
          "internalType": "address",
          "name": "player",
          "type": "address"
        }
      ],
      "name": "getPlayerFaction",
      "outputs": [
        {
          "internalType": "uint256",
          "name": "",
          "type": "uint256"
        }
      ],
      "stateMutability": "view",
      "type": "function"
    },
    {
      "inputs": [
        {
          "internalType": "address",
          "name": "player",
          "type": "address"
        }
      ],
      "name": "getPlayerId",
      "outputs": [
        {
          "internalType": "uint256",
          "name": "",
          "type": "uint256"
        }
      ],
      "stateMutability": "view",
      "type": "function"
    },
    {
      "inputs": [
        {
          "internalType": "address",
          "name": "player",
          "type": "address"
        }
      ],
      "name": "getPlayerStatus",
      "outputs": [
        {
          "internalType": "bool",
          "name": "",
          "type": "bool"
        }
      ],
      "stateMutability": "view",
      "type": "function"
    },
    {
      "inputs": [
        {
          "internalType": "bytes32",
          "name": "role",
          "type": "bytes32"
        }
      ],
      "name": "getRoleAdmin",
      "outputs": [
        {
          "internalType": "bytes32",
          "name": "",
          "type": "bytes32"
        }
      ],
      "stateMutability": "view",
      "type": "function"
    },
    {
      "inputs": [
        {
          "internalType": "bytes32",
          "name": "role",
          "type": "bytes32"
        },
        {
          "internalType": "uint256",
          "name": "index",
          "type": "uint256"
        }
      ],
      "name": "getRoleMember",
      "outputs": [
        {
          "internalType": "address",
          "name": "",
          "type": "address"
        }
      ],
      "stateMutability": "view",
      "type": "function"
    },
    {
      "inputs": [
        {
          "internalType": "bytes32",
          "name": "role",
          "type": "bytes32"
        }
      ],
      "name": "getRoleMemberCount",
      "outputs": [
        {
          "internalType": "uint256",
          "name": "",
          "type": "uint256"
        }
      ],
      "stateMutability": "view",
      "type": "function"
    },
    {
      "inputs": [
        {
          "internalType": "bytes32",
          "name": "role",
          "type": "bytes32"
        },
        {
          "internalType": "address",
          "name": "account",
          "type": "address"
        }
      ],
      "name": "grantRole",
      "outputs": [],
      "stateMutability": "nonpayable",
      "type": "function"
    },
    {
      "inputs": [
        {
          "internalType": "bytes32",
          "name": "role",
          "type": "bytes32"
        },
        {
          "internalType": "address",
          "name": "account",
          "type": "address"
        }
      ],
      "name": "hasRole",
      "outputs": [
        {
          "internalType": "bool",
          "name": "",
          "type": "bool"
        }
      ],
      "stateMutability": "view",
      "type": "function"
    },
    {
      "inputs": [],
      "name": "init",
      "outputs": [],
      "stateMutability": "nonpayable",
      "type": "function"
    },
    {
      "inputs": [
        {
          "internalType": "bytes32",
          "name": "role",
          "type": "bytes32"
        },
        {
          "internalType": "address",
          "name": "account",
          "type": "address"
        }
      ],
      "name": "renounceRole",
      "outputs": [],
      "stateMutability": "nonpayable",
      "type": "function"
    },
    {
      "inputs": [
        {
          "internalType": "bytes32",
          "name": "role",
          "type": "bytes32"
        },
        {
          "internalType": "address",
          "name": "account",
          "type": "address"
        }
      ],
      "name": "revokeRole",
      "outputs": [],
      "stateMutability": "nonpayable",
      "type": "function"
    },
    {
      "inputs": [
        {
          "internalType": "address",
          "name": "arenaModule",
          "type": "address"
        }
      ],
      "name": "setArena",
      "outputs": [],
      "stateMutability": "nonpayable",
      "type": "function"
    },
    {
      "inputs": [
        {
          "internalType": "address",
          "name": "artifacts",
          "type": "address"
        }
      ],
      "name": "setArtifacts",
      "outputs": [],
      "stateMutability": "nonpayable",
      "type": "function"
    },
    {
      "inputs": [
        {
          "internalType": "address",
          "name": "cosmetics",
          "type": "address"
        }
      ],
      "name": "setCosmetics",
      "outputs": [],
      "stateMutability": "nonpayable",
      "type": "function"
    },
    {
      "inputs": [
        {
          "internalType": "address",
          "name": "crafting",
          "type": "address"
        }
      ],
      "name": "setCrafting",
      "outputs": [],
      "stateMutability": "nonpayable",
      "type": "function"
    },
    {
      "inputs": [
        {
          "internalType": "address",
          "name": "essence",
          "type": "address"
        }
      ],
      "name": "setEssence",
      "outputs": [],
      "stateMutability": "nonpayable",
      "type": "function"
    },
    {
      "inputs": [
        {
          "internalType": "address",
          "name": "essenceAbsorber",
          "type": "address"
        }
      ],
      "name": "setEssenceAbsorber",
      "outputs": [],
      "stateMutability": "nonpayable",
      "type": "function"
    },
    {
      "inputs": [
        {
          "internalType": "address",
          "name": "essenceField",
          "type": "address"
        }
      ],
      "name": "setEssenceField",
      "outputs": [],
      "stateMutability": "nonpayable",
      "type": "function"
    },
    {
      "inputs": [
        {
          "internalType": "bytes4",
          "name": "interfaceId",
          "type": "bytes4"
        }
      ],
      "name": "supportsInterface",
      "outputs": [
        {
          "internalType": "bool",
          "name": "",
          "type": "bool"
        }
      ],
      "stateMutability": "view",
      "type": "function"
    },
    {
      "inputs": [
        {
          "internalType": "uint256",
          "name": "",
          "type": "uint256"
        }
      ],
      "name": "totalFactionMembers",
      "outputs": [
        {
          "internalType": "uint256",
          "name": "",
          "type": "uint256"
        }
      ],
      "stateMutability": "view",
      "type": "function"
    }
  ],
  "transactionHash": "0xc44904e5d1a8b1604bdf6f0665d6173815f933799c0ceef730462787924cb4fb",
  "args": [],
  "numDeployments": 1,
  "solcInputHash": "c7aa843f5f3e899c249213340a57bc41",
  "bytecode": "0x608060405234801561001057600080fd5b50611d62806100206000396000f3fe608060405234801561001057600080fd5b50600436106102115760003560e01c80638a53997211610125578063ad53b6da116100ad578063ca15c8731161007c578063ca15c8731461047b578063cab139151461048e578063d547741f146104a1578063e1c7392a146104b4578063ea047878146104bc57600080fd5b8063ad53b6da1461042d578063b2a5d3b914610435578063b3ec9a241461043d578063c4ae16a81461045257600080fd5b806391d14854116100f457806391d14854146103e25780639254527f146103f5578063a217fddf14610408578063a95067f214610410578063abd5fed81461042557600080fd5b80638a539972146103965780638f0ecae2146103a95780639010d07c146103bc57806391510979146103cf57600080fd5b806330935509116101a85780634da934c2116101775780634da934c21461034d5780634fb9d2cb1461035557806361eed2aa146103685780636b0fac4c14610370578063834b72a91461038357600080fd5b8063309355091461030c578063327fb65d1461031f57806336568abe146103325780633b9e047a1461034557600080fd5b80631d8e5831116101e45780631d8e5831146102a257806321f8a721146102b5578063248a9ca3146102c85780632f2ff15d146102f957600080fd5b806301ffc9a71461021657806306274eac1461023e5780630f45db911461025e5780631bd5ff281461028d575b600080fd5b610229610224366004611a0c565b6104c6565b60405190151581526020015b60405180910390f35b6102466104f1565b6040516001600160a01b039091168152602001610235565b61022961026c366004611a52565b6001600160a01b0316600090815260cf602052604090206001015460ff1690565b6102a061029b366004611a52565b61050b565b005b6102a06102b0366004611a52565b61059f565b6102466102c3366004611a6d565b610637565b6102eb6102d6366004611a6d565b60009081526065602052604090206001015490565b604051908152602001610235565b6102a0610307366004611a86565b610652565b6102eb61031a366004611a6d565b61067c565b6102a061032d366004611a52565b610693565b6102a0610340366004611a86565b610732565b6102466107b5565b6102466107cc565b6102a0610363366004611a52565b6107ea565b610246610881565b6102a061037e366004611a52565b61089c565b6102a0610391366004611ab2565b610938565b6102a06103a4366004611a6d565b610a13565b6102a06103b7366004611a52565b610c53565b6102466103ca366004611aee565b610ce9565b6102eb6103dd366004611a52565b610d08565b6102296103f0366004611a86565b610d3d565b6102a0610403366004611a52565b610d68565b6102eb600081565b6102eb600080516020611d0d83398151915281565b610246610e00565b610246610e16565b610246610e29565b610445610e40565b6040516102359190611b10565b6102eb610460366004611a52565b6001600160a01b0316600090815260cf602052604090205490565b6102eb610489366004611a6d565b610ea2565b6102a061049c366004611a6d565b610eb9565b6102a06104af366004611a86565b610f6f565b6102a0610f94565b60c9546102eb9081565b60006001600160e01b03198216635a05180f60e01b14806104eb57506104eb826110d5565b92915050565b600061050666455353454e434560c81b610637565b905090565b600080516020611d0d8339815191526105238161110a565b644152454e4160d81b600090815260d06020527fe9628137504f4ffceeedd6e392bf748f7bafd3bc9b2dd33a13b876e56e088b6a80546001600160a01b0319166001600160a01b03851690811790915560405190917fc290807c26b42ea6c384feb90afc6dec8c5e32d56cbaf28480328d8e9f0baee591a25050565b600080516020611d0d8339815191526105b78161110a565b68434f534d455449435360b81b600090815260d06020527f9493114de230cc84364d956972e938b9685bd68875c9067d41867f04ec9737a280546001600160a01b0319166001600160a01b03851690811790915560405190917feafd8faf15e6d5b5f2c5c4f0d3bec2685700676ded6ebc74231e680ea607c59f91a25050565b600090815260d060205260409020546001600160a01b031690565b60008281526065602052604090206001015461066d8161110a565b6106778383611114565b505050565b60ca816004811061068c57600080fd5b0154905081565b600080516020611d0d8339815191526106ab8161110a565b6f22a9a9a2a721a2afa0a129a7a92122a960811b600090815260d06020527f1f4f58c8aae9dbf52976509ca615d140d79d08ade834af353182b116d5f3906180546001600160a01b0319166001600160a01b03851690811790915560405190917f74bcf1eddae7cc31c9a296e62b953f72dd67983f386bc7d7beb3f84742f8b7d291a25050565b6001600160a01b03811633146107a75760405162461bcd60e51b815260206004820152602f60248201527f416363657373436f6e74726f6c3a2063616e206f6e6c792072656e6f756e636560448201526e103937b632b9903337b91039b2b63360891b60648201526084015b60405180910390fd5b6107b18282611136565b5050565b60006105066841525449464143545360b81b610637565b60006105066f22a9a9a2a721a2afa0a129a7a92122a960811b610637565b600080516020611d0d8339815191526108028161110a565b674352414654494e4760c01b600090815260d06020527fdaf203698124bdfd25ec83b3767b9360cdbb6e37c4470f988d6d61ae4c13488b80546001600160a01b0319166001600160a01b03851690811790915560405190917f7f79dc6d12f7c9b7721f35ca9d39bb057995cf73d516d18ecb115fe6e0a318bb91a25050565b60006105066c1154d4d15390d157d192515311609a1b610637565b600080516020611d0d8339815191526108b48161110a565b6c1154d4d15390d157d192515311609a1b600090815260d06020527f970fb61913f0d86d16108c692f4d6af931f46df54895bb7c3e9f0c8d6c820b5480546001600160a01b0319166001600160a01b03851690811790915560405190917f58e1e0df15d41077a42c847c2abbdb1cfe2e8f96e895738ef4440fad830e39f691a25050565b600080516020611d0d8339815191526109508161110a565b6001600160a01b038316600090815260cf602052604081205490036109b05760405162461bcd60e51b81526020600482015260166024820152751050d0d3d5539517d113d154d7d393d517d1561254d560521b604482015260640161079e565b6001600160a01b038316600081815260cf6020908152604091829020600101805460ff191686151590811790915591519182527f5923cec9cc42a5a043858dae8eeba878c8d559be9e11376f389e686033c131a9910160405180910390a2505050565b33600090815260cf60205260409020805460019091015460ff168115801590610a3a575080155b610a7b5760405162461bcd60e51b81526020600482015260126024820152714143434f554e545f4e4f545f41435449564560701b604482015260640161079e565b8260011480610a8a5750826002145b80610a955750826003145b610ae15760405162461bcd60e51b815260206004820152601860248201527f494e56414c49445f46414354494f4e5f53454c45435445440000000000000000604482015260640161079e565b6000610aec33610d08565b9050808403610b3d5760405162461bcd60e51b815260206004820152601d60248201527f43414e4e4f545f4445464543545f544f5f53414d455f46414354494f4e000000604482015260640161079e565b600160ca8260048110610b5257610b52611b5d565b016000828254610b629190611b89565b9091555050600184148015610b78575080600114155b15610bbd5733600090815260cf602052604090206001908101805461ff00191661010017905560ca815b016000828254610bb29190611bb2565b90915550610c4d9050565b836002148015610bce575080600214155b15610bfd5733600090815260cf602052604090206001908101805461ff00191661020017905560ca6002610ba2565b836003148015610c0e575080600314155b15610c4d5733600090815260cf602052604081206001908101805461ff00191661030017905560cd805491929091610c47908490611bb2565b90915550505b50505050565b600080516020611d0d833981519152610c6b8161110a565b66455353454e434560c81b600090815260d06020527f11f82bded71a2d72cc9ce6e884b3f4d7831e549aad63c11f39fa11cf793075cc80546001600160a01b0319166001600160a01b03851690811790915560405190917fd20bffd68db7030ca02bc1a93cc6660a7ddf14fa4ea681734d1f156ddfb1ee6291a25050565b6000828152609760205260408120610d019083611158565b9392505050565b6001600160a01b038116600090815260cf6020526040812060010154610100900460ff1660038111156104eb576104eb611b9c565b60009182526065602090815260408084206001600160a01b0393909316845291905290205460ff1690565b600080516020611d0d833981519152610d808161110a565b6841525449464143545360b81b600090815260d06020527fad6a478f83a0a973d39bdd8c3b143021c8a84a027a106bb1278ad545f9a2cea080546001600160a01b0319166001600160a01b03851690811790915560405190917ff4d8b3e7d1fe0e09e6395ee1c7bf2bff856d2915de2a99de0482a93ef9114ab391a25050565b6000610506674352414654494e4760c01b610637565b6000610506644152454e4160d81b610637565b600061050668434f534d455449435360b81b610637565b606060ce805480602002602001604051908101604052809291908181526020018280548015610e9857602002820191906000526020600020905b81546001600160a01b03168152600190910190602001808311610e7a575b5050505050905090565b60008181526097602052604081206104eb90611164565b610ec28161116e565b610ed060c980546001019055565b6000610edb60c95490565b33600081815260cf6020526040812083905560ce805460018101825591527fd36cd1c74ef8d7326d8021b776c18fb5a5724b7f7bc93c2f42e43e10ef27d12a0180546001600160a01b03191690911790559050610f366112ff565b60405181815233907f7325fb14450d3e5eb288c620b4ff1d6b43a41b33b4a4f143ae88cd4c12f99ea39060200160405180910390a25050565b600082815260656020526040902060010154610f8a8161110a565b6106778383611136565b600054610100900460ff1615808015610fb45750600054600160ff909116105b80610fce5750303b158015610fce575060005460ff166001145b6110315760405162461bcd60e51b815260206004820152602e60248201527f496e697469616c697a61626c653a20636f6e747261637420697320616c72656160448201526d191e481a5b9a5d1a585b1a5e995960921b606482015260840161079e565b6000805460ff191660011790558015611054576000805461ff0019166101001790555b61106c600080516020611d0d833981519152806114d1565b611084600080516020611d0d83398151915233611114565b61108c61151c565b80156110d2576000805461ff0019169055604051600181527f7f26b83ff96e1f2b6a682f133852f6798a09c465da95921460cefb38474024989060200160405180910390a15b50565b60006001600160e01b03198216637965db0b60e01b14806104eb57506301ffc9a760e01b6001600160e01b03198316146104eb565b6110d28133611589565b61111e82826115ed565b60008281526097602052604090206106779082611673565b6111408282611688565b600082815260976020526040902061067790826116ef565b6000610d018383611704565b60006104eb825490565b600033600090815260cf6020526040902060010154610100900460ff16600381111561119c5761119c611b9c565b146111e95760405162461bcd60e51b815260206004820152601a60248201527f504c415945525f414c52454144595f4841535f46414354494f4e000000000000604482015260640161079e565b80600114806111f85750806002145b806112035750806003145b6112415760405162461bcd60e51b815260206004820152600f60248201526e24a72b20a624a22fa320a1aa24a7a760891b604482015260640161079e565b806001036112895733600090815260cf602052604090206001908101805461ff00191661010017905560ca815b01600082825461127e9190611bb2565b909155506110d29050565b806002036112bb5733600090815260cf602052604090206001908101805461ff00191661020017905560ca600261126e565b806003036110d25733600090815260cf602052604081206001908101805461ff00191661030017905560cd8054919290916112f7908490611bb2565b909155505050565b600033600090815260cf6020526040902060010154610100900460ff16600381111561132d5761132d611b9c565b036113725760405162461bcd60e51b8152602060048201526015602482015274282620aca2a92fa420a9afa727afa320a1aa24a7a760591b604482015260640161079e565b33600090815260cf6020526040812060010154610100900460ff16600381111561139e5761139e611b9c565b90506113a8610e29565b604051627eeac760e11b8152336004820152602481018390526001600160a01b03919091169062fdd58e90604401602060405180830381865afa1580156113f3573d6000803e3d6000fd5b505050506040513d601f19601f820116820180604052508101906114179190611bc5565b156114645760405162461bcd60e51b815260206004820152601960248201527f4f4e4c595f4f4e455f534b494e5f5045525f46414354494f4e00000000000000604482015260640161079e565b61146c610e29565b60405163053fe11760e21b8152336004820152602481018390526001600160a01b0391909116906314ff845c90604401600060405180830381600087803b1580156114b657600080fd5b505af11580156114ca573d6000803e3d6000fd5b5050505050565b600082815260656020526040808220600101805490849055905190918391839186917fbd79b86ffe0ab8e8776151514217cd7cacd52c909f66475c3af44e129f0b00ff9190a4505050565b600054610100900460ff166115875760405162461bcd60e51b815260206004820152602b60248201527f496e697469616c697a61626c653a20636f6e7472616374206973206e6f74206960448201526a6e697469616c697a696e6760a81b606482015260840161079e565b565b6115938282610d3d565b6107b1576115ab816001600160a01b0316601461172e565b6115b683602061172e565b6040516020016115c7929190611c02565b60408051601f198184030181529082905262461bcd60e51b825261079e91600401611c77565b6115f78282610d3d565b6107b15760008281526065602090815260408083206001600160a01b03851684529091529020805460ff1916600117905561162f3390565b6001600160a01b0316816001600160a01b0316837f2f8788117e7eff1d82e926ec794901d17c78024a50270940304540a733656f0d60405160405180910390a45050565b6000610d01836001600160a01b0384166118ca565b6116928282610d3d565b156107b15760008281526065602090815260408083206001600160a01b0385168085529252808320805460ff1916905551339285917ff6391f5c32d9c69d2a47ea670b442974b53935d1edc7fd64eb21e047a839171b9190a45050565b6000610d01836001600160a01b038416611919565b600082600001828154811061171b5761171b611b5d565b9060005260206000200154905092915050565b6060600061173d836002611caa565b611748906002611bb2565b67ffffffffffffffff81111561176057611760611cc9565b6040519080825280601f01601f19166020018201604052801561178a576020820181803683370190505b509050600360fc1b816000815181106117a5576117a5611b5d565b60200101906001600160f81b031916908160001a905350600f60fb1b816001815181106117d4576117d4611b5d565b60200101906001600160f81b031916908160001a90535060006117f8846002611caa565b611803906001611bb2565b90505b600181111561187b576f181899199a1a9b1b9c1cb0b131b232b360811b85600f166010811061183757611837611b5d565b1a60f81b82828151811061184d5761184d611b5d565b60200101906001600160f81b031916908160001a90535060049490941c9361187481611cdf565b9050611806565b508315610d015760405162461bcd60e51b815260206004820181905260248201527f537472696e67733a20686578206c656e67746820696e73756666696369656e74604482015260640161079e565b6000818152600183016020526040812054611911575081546001818101845560008481526020808220909301849055845484825282860190935260409020919091556104eb565b5060006104eb565b60008181526001830160205260408120548015611a0257600061193d600183611b89565b855490915060009061195190600190611b89565b90508181146119b657600086600001828154811061197157611971611b5d565b906000526020600020015490508087600001848154811061199457611994611b5d565b6000918252602080832090910192909255918252600188019052604090208390555b85548690806119c7576119c7611cf6565b6001900381819060005260206000200160009055905585600101600086815260200190815260200160002060009055600193505050506104eb565b60009150506104eb565b600060208284031215611a1e57600080fd5b81356001600160e01b031981168114610d0157600080fd5b80356001600160a01b0381168114611a4d57600080fd5b919050565b600060208284031215611a6457600080fd5b610d0182611a36565b600060208284031215611a7f57600080fd5b5035919050565b60008060408385031215611a9957600080fd5b82359150611aa960208401611a36565b90509250929050565b60008060408385031215611ac557600080fd5b611ace83611a36565b915060208301358015158114611ae357600080fd5b809150509250929050565b60008060408385031215611b0157600080fd5b50508035926020909101359150565b6020808252825182820181905260009190848201906040850190845b81811015611b515783516001600160a01b031683529284019291840191600101611b2c565b50909695505050505050565b634e487b7160e01b600052603260045260246000fd5b634e487b7160e01b600052601160045260246000fd5b818103818111156104eb576104eb611b73565b634e487b7160e01b600052602160045260246000fd5b808201808211156104eb576104eb611b73565b600060208284031215611bd757600080fd5b5051919050565b60005b83811015611bf9578181015183820152602001611be1565b50506000910152565b7f416363657373436f6e74726f6c3a206163636f756e7420000000000000000000815260008351611c3a816017850160208801611bde565b7001034b99036b4b9b9b4b733903937b6329607d1b6017918401918201528351611c6b816028840160208801611bde565b01602801949350505050565b6020815260008251806020840152611c96816040850160208701611bde565b601f01601f19169190910160400192915050565b6000816000190483118215151615611cc457611cc4611b73565b500290565b634e487b7160e01b600052604160045260246000fd5b600081611cee57611cee611b73565b506000190190565b634e487b7160e01b600052603160045260246000fdfece2cbeb9915fd38406d762e76a712d13417d9fc0556e7f36bf9467d5cb3e24c7a2646970667358221220d1f69cb8e25310f23a60e122155a7376dc3c92c793c051878f158f226d6d0f9064736f6c63430008100033",
  "devdoc": {
    "kind": "dev",
    "methods": {
      "changeFreezeStatus(address,bool)": {
        "details": "Freezes an account for a player",
        "params": {
          "freezeStatus": "Whether to freeze or unfreeze the account*",
          "player": "The address of the player whose account is being frozen"
        }
      },
      "createAccount(uint256)": {
        "details": "Creates an account for a player",
        "params": {
          "faction": "The selected faction id*"
        }
      },
      "getAddress(bytes32)": {
        "details": "Returns an address by id",
        "returns": {
          "_0": "The address"
        }
      },
      "getAllActivePlayers()": {
        "details": "Returns all active players",
        "returns": {
          "_0": "Frozen status"
        }
      },
      "getArena()": {
        "details": "Returns the address of the ARENA",
        "returns": {
          "_0": "The ARENA address*"
        }
      },
      "getArtifacts()": {
        "details": "Returns the address of the ARTIFACTS",
        "returns": {
          "_0": "The ARTIFACTS address*"
        }
      },
      "getCosmetics()": {
        "details": "Returns the address of the COSMETICS",
        "returns": {
          "_0": "The COSMETICS address*"
        }
      },
      "getCrafting()": {
        "details": "Returns the address of the CRAFTING",
        "returns": {
          "_0": "The CRAFTING address*"
        }
      },
      "getEssence()": {
        "details": "Returns the address of the ESSENCE",
        "returns": {
          "_0": "The ESSENCE address*"
        }
      },
      "getEssenceAbsorber()": {
        "details": "Returns the address of the ESSENCE_ABSORBER",
        "returns": {
          "_0": "The ESSENCE_ABSORBER address*"
        }
      },
      "getEssenceField()": {
        "details": "Returns the address of the ESSENCE_FIELD",
        "returns": {
          "_0": "The ESSENCE_FIELD address*"
        }
      },
      "getPlayerFaction(address)": {
        "details": "Returns a player's faction",
        "returns": {
          "_0": "Faction code"
        }
      },
      "getPlayerId(address)": {
        "details": "Returns a player's id",
        "returns": {
          "_0": "Players'id"
        }
      },
      "getPlayerStatus(address)": {
        "details": "Returns a player's status",
        "returns": {
          "_0": "Frozen status"
        }
      },
      "getRoleAdmin(bytes32)": {
        "details": "Returns the admin role that controls `role`. See {grantRole} and {revokeRole}. To change a role's admin, use {_setRoleAdmin}."
      },
      "getRoleMember(bytes32,uint256)": {
        "details": "Returns one of the accounts that have `role`. `index` must be a value between 0 and {getRoleMemberCount}, non-inclusive. Role bearers are not sorted in any particular way, and their ordering may change at any point. WARNING: When using {getRoleMember} and {getRoleMemberCount}, make sure you perform all queries on the same block. See the following https://forum.openzeppelin.com/t/iterating-over-elements-on-enumerableset-in-openzeppelin-contracts/2296[forum post] for more information."
      },
      "getRoleMemberCount(bytes32)": {
        "details": "Returns the number of accounts that have `role`. Can be used together with {getRoleMember} to enumerate all bearers of a role."
      },
      "grantRole(bytes32,address)": {
        "details": "Grants `role` to `account`. If `account` had not been already granted `role`, emits a {RoleGranted} event. Requirements: - the caller must have ``role``'s admin role. May emit a {RoleGranted} event."
      },
      "hasRole(bytes32,address)": {
        "details": "Returns `true` if `account` has been granted `role`."
      },
      "renounceRole(bytes32,address)": {
        "details": "Revokes `role` from the calling account. Roles are often managed via {grantRole} and {revokeRole}: this function's purpose is to provide a mechanism for accounts to lose their privileges if they are compromised (such as when a trusted device is misplaced). If the calling account had been revoked `role`, emits a {RoleRevoked} event. Requirements: - the caller must be `account`. May emit a {RoleRevoked} event."
      },
      "revokeRole(bytes32,address)": {
        "details": "Revokes `role` from `account`. If `account` had been granted `role`, emits a {RoleRevoked} event. Requirements: - the caller must have ``role``'s admin role. May emit a {RoleRevoked} event."
      },
      "setArena(address)": {
        "details": "Updates the address of the ARENA",
        "params": {
          "arenaModule": "The new ARENA address*"
        }
      },
      "setArtifacts(address)": {
        "details": "Updates the address of the ARTIFACTS",
        "params": {
          "artifacts": "The new ARTIFACTS address*"
        }
      },
      "setCosmetics(address)": {
        "details": "Updates the address of the COSMETICS",
        "params": {
          "cosmetics": "The new COSMETICS address*"
        }
      },
      "setCrafting(address)": {
        "details": "Updates the address of the CRAFTING",
        "params": {
          "crafting": "The new CRAFTING address*"
        }
      },
      "setEssence(address)": {
        "details": "Updates the address of the ESSENCE",
        "params": {
          "essence": "The new ESSENCE address*"
        }
      },
      "setEssenceAbsorber(address)": {
        "details": "Updates the address of the ESSENCE_ABSORBER",
        "params": {
          "essenceAbsorber": "The new ESSENCE_ABSORBER address*"
        }
      },
      "setEssenceField(address)": {
        "details": "Updates the address of the ESSENCE_FIELD",
        "params": {
          "essenceField": "The new ESSENCE_FIELD address*"
        }
      },
      "supportsInterface(bytes4)": {
        "details": "See {IERC165-supportsInterface}."
      }
    },
    "version": 1
  },
  "userdoc": {
    "kind": "user",
    "methods": {},
    "version": 1
  },
  "storageLayout": {
    "storage": [
      {
        "astId": 838,
        "contract": "contracts/MothoraGame.sol:MothoraGame",
        "label": "_initialized",
        "offset": 0,
        "slot": "0",
        "type": "t_uint8"
      },
      {
        "astId": 841,
        "contract": "contracts/MothoraGame.sol:MothoraGame",
        "label": "_initializing",
        "offset": 1,
        "slot": "0",
        "type": "t_bool"
      },
      {
        "astId": 1266,
        "contract": "contracts/MothoraGame.sol:MothoraGame",
        "label": "__gap",
        "offset": 0,
        "slot": "1",
        "type": "t_array(t_uint256)50_storage"
      },
      {
        "astId": 1536,
        "contract": "contracts/MothoraGame.sol:MothoraGame",
        "label": "__gap",
        "offset": 0,
        "slot": "51",
        "type": "t_array(t_uint256)50_storage"
      },
      {
        "astId": 433,
        "contract": "contracts/MothoraGame.sol:MothoraGame",
        "label": "_roles",
        "offset": 0,
        "slot": "101",
        "type": "t_mapping(t_bytes32,t_struct(RoleData)428_storage)"
      },
      {
        "astId": 732,
        "contract": "contracts/MothoraGame.sol:MothoraGame",
        "label": "__gap",
        "offset": 0,
        "slot": "102",
        "type": "t_array(t_uint256)49_storage"
      },
      {
        "astId": 282,
        "contract": "contracts/MothoraGame.sol:MothoraGame",
        "label": "_roleMembers",
        "offset": 0,
        "slot": "151",
        "type": "t_mapping(t_bytes32,t_struct(AddressSet)1861_storage)"
      },
      {
        "astId": 392,
        "contract": "contracts/MothoraGame.sol:MothoraGame",
        "label": "__gap",
        "offset": 0,
        "slot": "152",
        "type": "t_array(t_uint256)49_storage"
      },
      {
        "astId": 5323,
        "contract": "contracts/MothoraGame.sol:MothoraGame",
        "label": "accountsCounter",
        "offset": 0,
        "slot": "201",
        "type": "t_struct(Counter)5116_storage"
      },
      {
        "astId": 5332,
        "contract": "contracts/MothoraGame.sol:MothoraGame",
        "label": "totalFactionMembers",
        "offset": 0,
        "slot": "202",
        "type": "t_array(t_uint256)4_storage"
      },
      {
        "astId": 5348,
        "contract": "contracts/MothoraGame.sol:MothoraGame",
        "label": "accountAddresses",
        "offset": 0,
        "slot": "206",
        "type": "t_array(t_address)dyn_storage"
      },
      {
        "astId": 5353,
        "contract": "contracts/MothoraGame.sol:MothoraGame",
        "label": "playerAccounts",
        "offset": 0,
        "slot": "207",
        "type": "t_mapping(t_address,t_struct(Account)5340_storage)"
      },
      {
        "astId": 5357,
        "contract": "contracts/MothoraGame.sol:MothoraGame",
        "label": "gameProtocolAddresses",
        "offset": 0,
        "slot": "208",
        "type": "t_mapping(t_bytes32,t_address)"
      }
    ],
    "types": {
      "t_address": {
        "encoding": "inplace",
        "label": "address",
        "numberOfBytes": "20"
      },
      "t_array(t_address)dyn_storage": {
        "base": "t_address",
        "encoding": "dynamic_array",
        "label": "address[]",
        "numberOfBytes": "32"
      },
      "t_array(t_bytes32)dyn_storage": {
        "base": "t_bytes32",
        "encoding": "dynamic_array",
        "label": "bytes32[]",
        "numberOfBytes": "32"
      },
      "t_array(t_uint256)49_storage": {
        "base": "t_uint256",
        "encoding": "inplace",
        "label": "uint256[49]",
        "numberOfBytes": "1568"
      },
      "t_array(t_uint256)4_storage": {
        "base": "t_uint256",
        "encoding": "inplace",
        "label": "uint256[4]",
        "numberOfBytes": "128"
      },
      "t_array(t_uint256)50_storage": {
        "base": "t_uint256",
        "encoding": "inplace",
        "label": "uint256[50]",
        "numberOfBytes": "1600"
      },
      "t_bool": {
        "encoding": "inplace",
        "label": "bool",
        "numberOfBytes": "1"
      },
      "t_bytes32": {
        "encoding": "inplace",
        "label": "bytes32",
        "numberOfBytes": "32"
      },
      "t_enum(Faction)5328": {
        "encoding": "inplace",
        "label": "enum MothoraGame.Faction",
        "numberOfBytes": "1"
      },
      "t_mapping(t_address,t_bool)": {
        "encoding": "mapping",
        "key": "t_address",
        "label": "mapping(address => bool)",
        "numberOfBytes": "32",
        "value": "t_bool"
      },
      "t_mapping(t_address,t_struct(Account)5340_storage)": {
        "encoding": "mapping",
        "key": "t_address",
        "label": "mapping(address => struct MothoraGame.Account)",
        "numberOfBytes": "32",
        "value": "t_struct(Account)5340_storage"
      },
      "t_mapping(t_bytes32,t_address)": {
        "encoding": "mapping",
        "key": "t_bytes32",
        "label": "mapping(bytes32 => address)",
        "numberOfBytes": "32",
        "value": "t_address"
      },
      "t_mapping(t_bytes32,t_struct(AddressSet)1861_storage)": {
        "encoding": "mapping",
        "key": "t_bytes32",
        "label": "mapping(bytes32 => struct EnumerableSetUpgradeable.AddressSet)",
        "numberOfBytes": "32",
        "value": "t_struct(AddressSet)1861_storage"
      },
      "t_mapping(t_bytes32,t_struct(RoleData)428_storage)": {
        "encoding": "mapping",
        "key": "t_bytes32",
        "label": "mapping(bytes32 => struct AccessControlUpgradeable.RoleData)",
        "numberOfBytes": "32",
        "value": "t_struct(RoleData)428_storage"
      },
      "t_mapping(t_bytes32,t_uint256)": {
        "encoding": "mapping",
        "key": "t_bytes32",
        "label": "mapping(bytes32 => uint256)",
        "numberOfBytes": "32",
        "value": "t_uint256"
      },
      "t_struct(Account)5340_storage": {
        "encoding": "inplace",
        "label": "struct MothoraGame.Account",
        "members": [
          {
            "astId": 5334,
            "contract": "contracts/MothoraGame.sol:MothoraGame",
            "label": "id",
            "offset": 0,
            "slot": "0",
            "type": "t_uint256"
          },
          {
            "astId": 5336,
            "contract": "contracts/MothoraGame.sol:MothoraGame",
            "label": "frozen",
            "offset": 0,
            "slot": "1",
            "type": "t_bool"
          },
          {
            "astId": 5339,
            "contract": "contracts/MothoraGame.sol:MothoraGame",
            "label": "faction",
            "offset": 1,
            "slot": "1",
            "type": "t_enum(Faction)5328"
          }
        ],
        "numberOfBytes": "64"
      },
      "t_struct(AddressSet)1861_storage": {
        "encoding": "inplace",
        "label": "struct EnumerableSetUpgradeable.AddressSet",
        "members": [
          {
            "astId": 1860,
            "contract": "contracts/MothoraGame.sol:MothoraGame",
            "label": "_inner",
            "offset": 0,
            "slot": "0",
            "type": "t_struct(Set)1560_storage"
          }
        ],
        "numberOfBytes": "64"
      },
      "t_struct(Counter)5116_storage": {
        "encoding": "inplace",
        "label": "struct Counters.Counter",
        "members": [
          {
            "astId": 5115,
            "contract": "contracts/MothoraGame.sol:MothoraGame",
            "label": "_value",
            "offset": 0,
            "slot": "0",
            "type": "t_uint256"
          }
        ],
        "numberOfBytes": "32"
      },
      "t_struct(RoleData)428_storage": {
        "encoding": "inplace",
        "label": "struct AccessControlUpgradeable.RoleData",
        "members": [
          {
            "astId": 425,
            "contract": "contracts/MothoraGame.sol:MothoraGame",
            "label": "members",
            "offset": 0,
            "slot": "0",
            "type": "t_mapping(t_address,t_bool)"
          },
          {
            "astId": 427,
            "contract": "contracts/MothoraGame.sol:MothoraGame",
            "label": "adminRole",
            "offset": 0,
            "slot": "1",
            "type": "t_bytes32"
          }
        ],
        "numberOfBytes": "64"
      },
      "t_struct(Set)1560_storage": {
        "encoding": "inplace",
        "label": "struct EnumerableSetUpgradeable.Set",
        "members": [
          {
            "astId": 1555,
            "contract": "contracts/MothoraGame.sol:MothoraGame",
            "label": "_values",
            "offset": 0,
            "slot": "0",
            "type": "t_array(t_bytes32)dyn_storage"
          },
          {
            "astId": 1559,
            "contract": "contracts/MothoraGame.sol:MothoraGame",
            "label": "_indexes",
            "offset": 0,
            "slot": "1",
            "type": "t_mapping(t_bytes32,t_uint256)"
          }
        ],
        "numberOfBytes": "64"
      },
      "t_uint256": {
        "encoding": "inplace",
        "label": "uint256",
        "numberOfBytes": "32"
      },
      "t_uint8": {
        "encoding": "inplace",
        "label": "uint8",
        "numberOfBytes": "1"
      }
    }
  }
}